:020000000328D3
:1000060083160313860105148312860105188428B6
:1000160086170630FB001330FC00AD30FD00FD0BEB
:100026001228FC0B1228FB0B1228000000000617F2
:100036000630FB001330FC00AD30FD00FD0B21281F
:10004600FC0B2128FB0B2128000000008616063039
:10005600FB001330FC00AD30FD00FD0B3028FC0B1F
:100066003028FB0B30280000000006160630FB0087
:100076001330FC00AD30FD00FD0B3F28FC0B3F2884
:10008600FB0B3F280000000086150630FB001330EE
:10009600FC00AD30FD00FD0B4E28FC0B4E28FB0B83
:1000A6004E280000000006150630FB001330FC0049
:1000B600AD30FD00FD0B5D28FC0B5D28FB0B5D28BC
:1000C6000000000086140630FB001330FC00AD3043
:1000D600FD00FD0B6C28FC0B6C28FB0B6C2800004C
:1000E600000006140630FB001330FC00AD30FD00A6
:1000F600FD0B7B28FC0B7B28FB0B7B2800000000FC
:10010600FC2886130630FB001330FC00AD30FD00E2
:10011600FD0B8B28FC0B8B28FB0B8B2800000000AB
:1001260006130630FB001330FC00AD30FD00FD0B5E
:100136009A28FC0B9A28FB0B9A28000000008612CE
:100146000630FB001330FC00AD30FD00FD0BA92886
:10015600FC0BA928FB0BA92800000000061206309C
:10016600FB001330FC00AD30FD00FD0BB828FC0B86
:10017600B828FB0BB8280000000086110630FB00EB
:100186001330FC00AD30FD00FD0BC728FC0BC72863
:10019600FB0BC7280000000006110630FB001330D9
:1001A600FC00AD30FD00FD0BD628FC0BD628FB0B62
:1001B600D6280000000086100630FB001330FC0035
:1001C600AD30FD00FD0BE528FC0BE528FB0BE52813
:1001D6000000000006100630FB001330FC00AD30B6
:1001E600FD00FD0BF428FC0BF428FB0BF4280000A3
:0601F60000000928FD28AD
:02400E006A2125
:00000001FF
