:02000000D62800
:0E0006008312031323088A00220882000800D8
:1000140003208A110A128000840AA20A0319A30A7F
:08002400F003031D0A28080087
:10002C004B288312031306128612061386137528A7
:10003C0006168612061386137528061286160613E4
:10004C00861375280616861606138613752806124F
:10005C00861206178613752806168612061786133F
:10006C007528061286160617861375280616861628
:10007C00061786137528061286120613861775281E
:10008C000616861206138617752883120313240886
:10009C00003A031917282408013A03191E282408CA
:1000AC00023A031923282408033A031928282408A0
:1000BC00043A03192D282408053A03193228240878
:1000CC00063A031937282408073A03193C28240850
:1000DC00083A031941282408093A0319462808004C
:1000EC00AB28831203130610861006118611D5282F
:1000FC000614861006118611D528061086140611D2
:10010C008611D5280614861406118611D5280610DA
:10011C00861006158611D52806148610061586112C
:10012C00D5280610861406158611D52806148614B3
:10013C0006158611D5280610861006118615D528A9
:10014C000614861006118615D5288312031324086D
:10015C00003A031977282408013A03197E28240849
:10016C00023A031983282408033A0319882824081F
:10017C00043A03198D282408053A031992282408F7
:10018C00063A031997282408073A03199C282408CF
:10019C00083A0319A1282408093A0319A6280800CB
:1001AC0083120313A001A101831686018312860119
:1001BC00A00A2108A40076202008A40016202008FC
:1001CC000A3A031DF828A10AA0012108A4007620F0
:1001DC002008A400162021080A3A031DF828A101C2
:1001EC00A40176200630FB001330FC00AD30FD007E
:1001FC00FD0BFE28FC0BFE28FB0BFE28000000006C
:04020C00DE280729B8
:02400E006A2125
:00000001FF
