:020000000328D3
:10000600831603138514051586013F308312860077
:1000160085181829A20A0319A30ABB280330FB0076
:100026008A30FC005530FD00FD0B1728FC0B172805
:10003600FB0B172800000000063086000B29033052
:10004600FB008A30FC005530FD00FD0B2828FC0B18
:100056002828FB0B2828000000005B3086000B29AF
:100066000330FB008A30FC005530FD00FD0B3928BB
:10007600FC0B3928FB0B3928000000004F308600A6
:100086000B290330FB008A30FC005530FD00FD0BC8
:100096004A28FC0B4A28FB0B4A2800000000663061
:1000A60086000B290330FB008A30FC005530FD002A
:1000B600FD0B5B28FC0B5B28FB0B5B28000000009C
:1000C6006D3086000B290330FB008A30FC0055306A
:1000D600FD00FD0B6C28FC0B6C28FB0B6C2800004C
:1000E60000007D3086000B290330FB008A30FC00BF
:1000F6005530FD00FD0B7D28FC0B7D28FB0B7D2874
:1001060000000000073086000B290330FB008A3010
:10011600FC005530FD00FD0B8E28FC0B8E28FB0BDA
:100126008E28000000007F3086000B290330FB007C
:100136008A30FC005530FD00FD0B9F28FC0B9F28E4
:10014600FB0B9F28000000006F3086000B29033050
:10015600FB008A30FC005530FD00FD0BB028FC0B7F
:10016600B028FB0BB028000000003F3086000B29AA
:1001760000302306031DC128013022060319112869
:1001860000302306031DC92802302206031922283F
:1001960000302306031DD128033022060319332815
:1001A60000302306031DD9280430220603194428EB
:1001B60000302306031DE1280530220603195528C1
:1001C60000302306031DE928063022060319662897
:1001D60000302306031DF12807302206031977286D
:1001E60000302306031DF928083022060319882843
:1001F60000302306031D0129093022060319992818
:1002060000302306031D09290A3022060319AA28ED
:1002160080302306F00080307002031D14290A3056
:100226002202031C1829A201A30105191E293F3029
:0A0236008600A201A3010B281F2976
:02400E006A2125
:00000001FF
