:020000000329D2
:0E000600213083120313FD00FD0B07280800B4
:100014000F3083120313FC004730FD00FD0B102842
:0A002400FC0B10280000000008008B
:06002E00000000000800C4
:1000340083120313AF1B20288612212886162F1B38
:100044002528061226280616AF1A2A2886112B28D8
:1000540086152F1A2F28061130280615251834283E
:10006400061435280610861417208610AF193C286C
:1000740086123D2886162F19412806124228061694
:10008400AF1846288611472886152F184B280611C5
:100094004C280615251850280614512806108614D5
:1000A40017208610251C58280A20592803200800E8
:0E00B4008312031327088A0026088200080022
:1000C2008312031325102E08AF001A2025140800EE
:1000D2008316031386100610861006118611061267
:1000E20083128610061086120612861106110A2045
:1000F2000A200A20861506158614172086100A2063
:100102008614172086100A208614172086100A20CB
:1001120006118614172086100A20861417208610CE
:10012200861186168614172086100A208612061556
:1001320086141720861006118614172086100A20AE
:1001420086141720861006158614172086100A209A
:1001520006118614172086108616061686150615B1
:0C0162008614172086100A2025140800BF
:10016E00C928803083120313AA00DC28C030AA00ED
:10017E00DC289430AA00DC28D430AA00DC28803099
:10018E00AA00DC28831203132A08013A0319B8289F
:10019E002A08023A0319BD282A08033A0319C0286F
:1001AE002A08043A0319C328C6282B03F0002A088C
:1001BE00F0077008AA007008AF001A202510AD01D4
:1001CE002D082C07840000080319F5282D082C078C
:1001DE0084000008AE006120AD0AE728251408004F
:1001EE005A208A110A128000840AA60A0319A70A45
:0801FE00F003031DF7280800BF
:10020600493083120313A0004630A1005030A200EB
:100216004530A300A4018316051485148312051026
:100226008510831686018312860169200130AF008E
:100236001A200C30AF001A200130AA000330AB00A0
:100246002030AC00B72005184B290130A80000303B
:10025600A9008030F000803029067002031D352980
:100266002808013C031C4B291C30AF001A20023021
:10027600FB000430FC00BA30FD00FD0B4029FC0BEE
:100286004029FB0B40290000A80A0319A90A2C29BA
:10029600851870290130A8000030A9008030F000D0
:1002A600803029067002031D5A292808013C031CC8
:1002B60070291830AF001A200230FB000430FC0011
:1002C600BA30FD00FD0B6529FC0B6529FB0B652982
:0E02D6000000A80A0319A90A51292629712936
:02400E006A2125
:00000001FF
