:100000000C945D000C9485000C9485000C94850084
:100010000C9485000C9485000C9485000C9485004C
:100020000C9485000C9485000C9485000C9485003C
:100030000C9485000C9485000C9485000C9485002C
:100040000C94A4030C9485000C9485000C948500FA
:100050000C9485000C9485000C9485000C9485000C
:100060000C9485000C94850000000008000201003B
:100070000003040700000000000000000000000072
:10008000250028002B0000000000240027002A0083
:10009000040404040404040402020202020203032E
:1000A0000303030301020408102040800102040836
:1000B0001020010204081020530511241FBECFEFA9
:1000C000D8E0DEBFCDBF11E0A0E0B1E0EEEAFFE096
:1000D00002C005900D92A636B107D9F721E0A6E639
:1000E000B1E001C01D92A738B207E1F710E0CDE5FD
:1000F000D0E004C02197FE010E94CF07CC35D10784
:10010000C9F70E94EE030C94D5070C94000090E010
:10011000FC01EC55FF4F249180579F4FFC018491C7
:10012000882399F090E0880F991FFC01EA57FF4F50
:10013000A591B491FC01E458FF4F859194918FB73C
:10014000F894EC91E22BEC938FBF0895AF92BF929D
:10015000CF92DF92EF92FF920F931F93CF93DF9393
:100160006C017B018B01040F151FEB015E01AE18C2
:10017000BF08C017D10759F06991D601ED91FC91E4
:100180000190F081E02DC6010995892B79F7C50111
:10019000DF91CF911F910F91FF90EF90DF90CF9063
:1001A000BF90AF90089590E0FC01E859FF4F249173
:1001B000FC01EC55FF4F3491FC01E057FF4FE491F7
:1001C000EE23C9F0222339F0233001F1A8F42130C5
:1001D00019F1223029F1F0E0EE0FFF1FE458FF4F34
:1001E000A591B4918FB7F894EC91611126C0309528
:1001F0003E233C938FBF08952730A9F02830C9F0E3
:10020000243049F7809180008F7D03C08091800069
:100210008F7780938000DFCF84B58F7784BDDBCF6D
:1002200084B58F7DFBCF8091B0008F778093B00035
:10023000D2CF8091B0008F7DF9CF3E2BDACF0895D9
:1002400090E080E00895FC0101900020E9F73197EB
:10025000AF01481B590BBC018FE691E00C94A6003E
:100260008F929F92AF92BF920F931F93CF93DF9382
:10027000CDB7DEB7A1970FB6F894DEBF0FBECDBFE6
:1002800019A2423008F44AE08E010F5D1F4F842E00
:10029000912CB12CA12CA50194010E94AD07E62F51
:1002A000B901CA01EA30F4F4E05DD801EE938D01A2
:1002B000232B242B252B79F790E080E0109719F061
:1002C000CD010E942301A1960FB6F894DEBF0FBEA8
:1002D000CDBFDF91CF911F910F91BF90AF909F90B5
:1002E0008F900895E95CE1CFCF93DF93EC0160E05C
:1002F0008E810E94D30061E08E810E94D30060E075
:100300008E810E94D3008BE891E00197F1F7DF9195
:10031000CF910895CF92DF92EF92FF920F931F93A8
:10032000CF93DF936C017C0187E0E80EF11CD0E0F5
:10033000C0E0062F10E0B8010C2E02C0759567953D
:100340000A94E2F76170F70181917F010E94D30066
:100350002196C430D10579F7C601DF91CF911F9165
:100360000F91FF90EF90DF90CF900C947401CF929B
:10037000DF92EF92FF920F931F93CF93DF93EC01E5
:10038000F62E642F8C810E94D3008D818F3F19F04F
:1003900060E00E94D3000F2D10E08F8584FF25C000
:1003A0006E0187E0C80ED11CF12CE12CB8010E2C97
:1003B00002C0759567950A94E2F76170F601819124
:1003C0006F010E94D300FFEFEF1AFF0A88E0E816E2
:1003D000F10461F7CE01DF91CF911F910F91FF9052
:1003E000EF90DF90CF900C947401B80184E0759584
:1003F00067958A95E1F7CE010E948A016F2DCE01A3
:10040000DF91CF911F910F91FF90EF90DF90CF90F0
:100410000C948A0140E0682F8FE691E00C94B701BC
:10042000CF93DF93823029F490917E01986090936E
:100430007E01809382011092830180E48093840185
:1004400080E18093850180E580938601809173012E
:100450000E948700809174018F3F11F00E948700F5
:10046000809175010E948700CFE6D1E09E012F5652
:10047000314080917E0184FD0AC084E090E02196A5
:10048000281739073CF48E810E948700EFCF88E05F
:1004900090E0F5CF8BE39DE00197F1F760E080916C
:1004A00073010E94D30060E0809175010E94D30027
:1004B000809174018F3F19F060E00E94D300809119
:1004C0007E0184FD39C063E08FE691E00E948A01DD
:1004D000CBE4D6E4CE010197F1F763E08FE691E03B
:1004E0000E948A012197F1F763E08FE691E00E9474
:1004F0008A0183E592E00197F1F762E08FE691E0EF
:100500000E948A0180917E0180620E940A0284E03A
:1005100080937F018CE00E940A0281E00E940A021F
:100520008BE39FE10197F1F782E08093800186E001
:10053000DF91CF910C940A0280620E940A028BE440
:1005400096E40197F1F780917E0180620E940A0291
:1005500083E592E00197F1F780917E0180620E942D
:100560000A02D0CF90918201891710F08FEF890F86
:10057000E82FF0E0E159FE4F848980680C940A026C
:1005800041E00E94B70181E090E008954F925F92B0
:100590006F927F928F929F92AF92BF92CF92DF9293
:1005A000EF92FF920F931F93CF936B017C01742EF8
:1005B000AC019B010E94A807882399F08CE091E090
:1005C000CF911F910F91FF90EF90DF90CF90BF9050
:1005D000AF909F908F907F906F905F904F900C9412
:1005E000230146015701E894B7F82FEF3FEF4FE79B
:1005F0005FE7C501B4010E94A80781110DC02FEF6C
:100600003FEF4FE75FE7C501B4010E94DE05181612
:100610001CF480E191E0D4CF2FEF3FEF4FE75FE490
:10062000C701B6010E94360718161CF484E191E058
:10063000C7CF2FEF3FEF4FE75FECC701B6010E9436
:10064000DE0587FDF3CF20E030E0A901C701B60148
:100650000E94DE0510E000E087FF0CC041E06DE283
:100660008FE691E00E94B701F7FAF094F7F8F09462
:1006700001E010E0C0E060E070E080E09FE37C1605
:1006800041F020E030E040E251E40E94E305CF5F1A
:10069000F6CFA70196010E9472054B015C010E94F2
:1006A00055062B013C014AE00E943001080F191F3A
:1006B000CC23C9F1C301B2010E9484069B01AC01A5
:1006C000C501B4010E9471054B015C0141E06EE27D
:1006D0008FE691E00E94B7010F5F1F4FC15018F1E4
:1006E00020E030E040E251E4C501B4010E943B0744
:1006F0002B013C010E9455064B01B12CA12C4AE074
:10070000C501B4010E943001080F191FC501B401D1
:100710000E9484069B01AC01C301B2010E947105D5
:100720004B015C01DBCFC801CF911F910F91FF906E
:10073000EF90DF90CF90BF90AF909F908F907F9081
:100740006F905F904F9008951F920F920FB60F9287
:1007500011242F933F938F939F93AF93BF938091D7
:100760006B0190916C01A0916D01B0916E0130917F
:100770006A0123E0230F2D3758F50196A11DB11D05
:1007800020936A0180936B0190936C01A0936D019B
:10079000B0936E018091660190916701A09168010C
:1007A000B09169010196A11DB11D809366019093DE
:1007B0006701A0936801B0936901BF91AF919F91C8
:1007C0008F913F912F910F900FBE0F901F90189512
:1007D00026E8230F0296A11DB11DD2CF789484B5CF
:1007E000826084BD84B5816084BD85B5826085BD2D
:1007F00085B5816085BD80916E00816080936E00BB
:1008000010928100809181008260809381008091AC
:10081000810081608093810080918000816080935D
:1008200080008091B10084608093B1008091B0001D
:1008300081608093B00080917A00846080937A0018
:1008400080917A00826080937A0080917A00816042
:1008500080937A0080917A00806880937A00109269
:10086000C10086E00E94870087E00E94870088E040
:100870000E94870089E00E94870060E086E00E9475
:10088000D30060E087E00E94D30060E088E00E942F
:10089000D30060E089E00E94D30082E00E94100251
:1008A00010E4C0E0D0E010937C0080917A00806476
:1008B00080937A0080917A0086FDFCCF8091780049
:1008C00060917900762F682F072E000C880B990B0A
:1008D0000E94860620E030E040EA50E40E943B0798
:1008E00020E030EC4FE754E40E94E3052AE037EDC6
:1008F00043E25CE30E94E30520E030E048E452E498
:100900000E9471056B017C0120E030E040E951E478
:100910000E94DE0587FF17C080E00E94B20288E1D6
:1009200091E00E94230181E00E94B20242E0C701EF
:10093000B6010E94C60260E086E00E94D30084E215
:1009400091E00E94230120E030E040E951E4C7013A
:10095000B6010E94360787FD21C020E030E048EC58
:1009600051E4C701B6010E94DE051816BCF080E014
:100970000E94B20261E086E00E94D30080E391E031
:100980000E94230181E00E94B20242E0C701B60149
:100990000E94C60284E291E00E94230120E030E040
:1009A00040ED51E4C701B6010E94360787FD59C0EA
:1009B00022E538EB46EE51E4C701B6010E94DE05A0
:1009C00018160CF44EC080E00E94B20261E087E08D
:1009D0000E94D30060E086E00E94D3008EE391E0A5
:1009E0000E94230181E00E94B20242E0C701B601E9
:1009F0000E94C60284E291E00E94230122E538EBC6
:100A000046EE51E4C701B6010E9436071816C4F538
:100A100080E00E94B20261E088E00E94D30060E0C2
:100A200087E00E94D30060E086E00E94D30061E08E
:100A300089E00E94D3008CE491E00E94230181E0D0
:100A40000E94B20242E0C701B6010E94C60289E5D7
:100A500091E00E942301209709F425CF0E94000015
:100A600022CF20E030E040ED51E4C701B6010E9402
:100A7000DE0587FFC3CF60E087E00E94D300BECFD2
:100A800022E538EB46EE51E4C701B6010E94DE05CF
:100A900087FFE1CF60E088E00E94D30060E089E05A
:100AA0000E94D300D8CFEFE6F1E01382128284E0F7
:100AB00091E0918380838CE084838FEF85838BE04A
:100AC000868385E0878384E0808783E0818782E076
:100AD00082871386148615861686178681E00C9405
:100AE00010025058BB27AA270E9489050C94FC06C7
:100AF0000E94EE0638F00E94F50620F039F49F3F80
:100B000019F426F40C94EB060EF4E095E7FB0C9434
:100B1000E506E92F0E940D0758F3BA17620773071D
:100B20008407950720F079F4A6F50C942F070EF4AE
:100B3000E0950B2EBA2FA02D0B01B90190010C01ED
:100B4000CA01A0011124FF27591B99F0593F50F405
:100B5000503E68F11A16F040A22F232F342F44275D
:100B6000585FF3CF469537952795A795F040539555
:100B7000C9F77EF41F16BA0B620B730B840BBAF025
:100B80009150A1F0FF0FBB1F661F771F881FC2F790
:100B90000EC0BA0F621F731F841F48F487957795A4
:100BA0006795B795F7959E3F08F0B0CF9395880F5E
:100BB00008F09927EE0F9795879508950E94C10632
:100BC00008F481E008950E94F7050C94FC060E9449
:100BD000F50658F00E94EE0640F029F45F3F29F038
:100BE0000C94E50651110C9430070C94EB060E940E
:100BF0000D0768F39923B1F3552391F3951B550B1A
:100C0000BB27AA2762177307840738F09F5F5F4FDF
:100C1000220F331F441FAA1FA9F335D00E2E3AF01E
:100C2000E0E832D091505040E695001CCAF72BD036
:100C3000FE2F29D0660F771F881FBB1F2617370787
:100C40004807AB07B0E809F0BB0B802DBF01FF27B9
:100C500093585F4F3AF09E3F510578F00C94E506AB
:100C60000C9430075F3FE4F3983ED4F38695779574
:100C70006795B795F7959F5FC9F7880F911D969572
:100C8000879597F90895E1E0660F771F881FBB1FCE
:100C9000621773078407BA0720F0621B730B840B7B
:100CA000BA0BEE1F88F7E09508950E94150788F0AB
:100CB0009F5798F0B92F9927B751B0F0E1F0660F20
:100CC000771F881F991F1AF0BA95C9F714C0B13061
:100CD00091F00E942F07B1E008950C942F07672F21
:100CE000782F8827B85F39F0B93FCCF38695779590
:100CF0006795B395D9F73EF4909580957095619579
:100D00007F4F8F4F9F4F0895E89409C097FB3EF4A3
:100D100090958095709561957F4F8F4F9F4F992348
:100D2000A9F0F92F96E9BB279395F69587957795C6
:100D30006795B795F111F8CFFAF4BB0F11F460FF86
:100D40001BC06F5F7F4F8F4F9F4F16C0882311F0DE
:100D500096E911C0772321F09EE8872F762F05C0F2
:100D6000662371F096E8862F70E060E02AF09A958D
:100D7000660F771F881FDAF7880F9695879597F982
:100D80000895990F0008550FAA0BE0E8FEEF16161C
:100D90001706E807F907C0F012161306E407F5076F
:100DA00098F0621B730B840B950B39F40A2661F0E3
:100DB000232B242B252B21F408950A2609F4A14086
:100DC000A6958FEF811D811D089597F99F6780E893
:100DD00070E060E008959FEF80EC089500240A948D
:100DE0001616170618060906089500240A94121606
:100DF0001306140605060895092E0394000C11F439
:100E0000882352F0BB0F40F4BF2B11F460FF04C0E5
:100E10006F5F7F4F8F4F9F4F089557FD9058440F3E
:100E2000551F59F05F3F71F04795880F97FB991F49
:100E300061F09F3F79F08795089512161306140606
:100E4000551FF2CF4695F1DF08C016161706180693
:100E5000991FF1CF86957105610508940895E8946E
:100E6000BB2766277727CB0197F908950E94C10613
:100E700008F48FEF08950E944E070C94FC060E9420
:100E8000EE0638F00E94F50620F0952311F00C9440
:100E9000E5060C94EB0611240C9430070E940D0714
:100EA00070F3959FC1F3950F50E0551F629FF001BD
:100EB000729FBB27F00DB11D639FAA27F00DB11DD6
:100EC000AA1F649F6627B00DA11D661F829F22275F
:100ED000B00DA11D621F739FB00DA11D621F839FE6
:100EE000A00D611D221F749F3327A00D611D231FBC
:100EF000849F600D211D822F762F6A2F11249F570A
:100F000050409AF0F1F088234AF0EE0FFF1FBB1F0C
:100F1000661F771F881F91505040A9F79E3F5105CB
:100F200080F00C94E5060C9430075F3FE4F3983EA4
:100F3000D4F3869577956795B795F795E7959F5F75
:100F4000C1F7FE2B880F911D9695879597F9089507
:100F50000E94C106880B990B0895A1E21A2EAA1BC4
:100F6000BB1BFD010DC0AA1FBB1FEE1FFF1FA21759
:100F7000B307E407F50720F0A21BB30BE40BF50B56
:100F8000661F771F881F991F1A9469F760957095DF
:100F9000809590959B01AC01BD01CF010895EE0FA6
:0E0FA000FF1F0590F491E02D0994F894FFCF07
:100FAE0000000000C002A60020011F016E616E004D
:100FBE00696E66006F76660054656D702E20417402
:100FCE0075616C0020202020202020202020200071
:100FDE0054656D702E2042616978613A2000546527
:100FEE006D702E204D656469613A200054656D70F8
:100FFE002E20416C74613A2000205369742E2041DA
:06100E006C61722E00006F
:00000001FF
