:020000008B284B
:1000060083120313851C5128051D51283A3086009A
:100016008230FC00DD30FD00FD0B0F28FC0B0F28A5
:1000260000000000393086008230FC00DD30FD0023
:10003600FD0B1B28FC0B1B28000000003B30860034
:100046008230FC00DD30FD00FD0B2728FC0B272845
:1000560000000000373086008230FC00DD30FD00F5
:10006600FD0B3328FC0B33280000000027308600E8
:100076008230FC00DD30FD00FD0B3F28FC0B3F28E5
:1000860000000000173086008230FC00DD30FD00E5
:0E009600FD0B4B28FC0B4B280000000008005F
:1000A40083120313051968285B3086000330FB00B4
:1000B4008A30FC005530FD00FD0B5E28FC0B5E28E9
:0E00C400FB0B5E2800000000A201A301080053
:1000D2008312031385188A28A20A0319A30A822805
:1000E2000330FB008A30FC005530FD00FD0B772801
:1000F200FC0B7728FB0B77280000000006308600F7
:100102008A2800302306031D88280130220603199D
:040112007128080048
:10011600831603138514051586013F308312860066
:0A0126000320692052209328972837
:02400E006A2125
:00000001FF
