:02000000462890
:100006000E3083120313FD00FD0B072800000800C5
:0E0016008312031324088A00230882000800C6
:100024000B208A110A128000840AA30A0319A40A65
:08003400F003031D122808006F
:10003C00831203139F01C0309F042009F000700845
:10004C0083169F051F179F1783122508F000F00DCC
:10005C007010F00D7010F00D701070089F041F14CC
:10006C0003201F151F1D3C28000038281F101E08D8
:10007C00F100F00183161E08F0040030F1040800B2
:10008C009C208130831203139F004E3083169F00F7
:10009C00860183128601A5011E2070088312A1001F
:1000AC007108A2007108003C031D5E287008003C1A
:1000BC00031863280611861006102208003C031D45
:1000CC0069282108CD3C03186E28061586100610E9
:1000DC002208023C031D74282108663C0318792869
:1000EC000615861406102208033C031D7F282108E0
:1000FC00333C031884280615861406140230FB00C2
:10010C000430FC00BA30FD00FD0B8A28FC0B8A2859
:0A011C00FB0B8A28000051289228EE
:1001380020308400033083120313F0009830A300AA
:080148000030A40012200800A1
:020130000F348A
:040132000034003461
:02400E004A2F37
:00000001FF
