:020000000328D3
:100006008316031306108610061186110612861231
:1000160006138613831206140630FB001330FC0009
:10002600AD30FD00FD0B1528FC0B1528FB0B152824
:100036000000000086140630FB001330FC00AD30D3
:10004600FD00FD0B2428FC0B2428FB0B24280000B4
:10005600000006150630FB001330FC00AD30FD0035
:10006600FD0B3328FC0B3328FB0B33280000000064
:1000760086150630FB001330FC00AD30FD00FD0B8D
:100086004228FC0B4228FB0B422800000000061603
:100096000630FB001330FC00AD30FD00FD0B51288F
:1000A600FC0B5128FB0B5128000000008616063079
:1000B600FB001330FC00AD30FD00FD0B6028FC0B8F
:1000C6006028FB0B60280000000006170630FB00C6
:1000D6001330FC00AD30FD00FD0B6F28FC0B6F28C4
:1000E600FB0B6F280000000086170630FB0013305C
:1000F600FC00AD30FD00FD0B7E28FC0B7E28FB0BC3
:100106007E280000000006100630FB001330FC00BD
:10011600AD30FD00FD0B8D28FC0B8D28FB0B8D28CB
:100126000000000086100630FB001330FC00AD30E6
:10013600FD00FD0B9C28FC0B9C28FB0B9C2800005B
:10014600000006110630FB001330FC00AD30FD0048
:10015600FD0BAB28FC0BAB28FB0BAB28000000000B
:1001660086110630FB001330FC00AD30FD00FD0BA0
:10017600BA28FC0BBA28FB0BBA28000000000612AE
:100186000630FB001330FC00AD30FD00FD0BC92826
:10019600FC0BC928FB0BC92800000000861206309C
:1001A600FB001330FC00AD30FD00FD0BD828FC0B26
:1001B600D828FB0BD8280000000006130630FB00E9
:1001C6001330FC00AD30FD00FD0BE728FC0BE728E3
:1001D600FB0BE7280000000086130630FB001330F7
:1001E600FC00AD30FD00FD0BF628FC0BF628FB0BE2
:0A01F600F628000000000D28FF2885
:02400E006A2125
:00000001FF
