:020000000328D3
:100006008316031386100610831206140B30FB00AA
:100016002630FC005D30FD00FD0B0F28FC0B0F2881
:10002600FB0B0F280000000006100B30FB002630EB
:10003600FC005D30FD00FD0B1E28FC0B1E28FB0B93
:100046001E280000000006140B30FB002630FC00C2
:100056005D30FD00FD0B2D28FC0B2D28FB0B2D28FC
:100066000000000006100B30FB002630FC005D305F
:10007600FD00FD0B3C28FC0B3C28FB0B3C2800003C
:10008600000086140B30FB002630FC005D30FD00BE
:10009600FD0B4B28FC0B4B28FB0B4B2800000000EC
:1000A60086100B30FB002630FC005D30FD00FD0B9A
:1000B6005A28FC0B5A28FB0B5A280000000086140D
:1000C6000B30FB002630FC005D30FD00FD0B69287F
:1000D600FC0B6928FB0B69280000000086100B301A
:1000E600FB002630FC005D30FD00FD0B7828FC0B84
:1000F6007828FB0B78280000000086140B30FB00E4
:100106002630FC005D30FD00FD0B8728FC0B8728A0
:10011600FB0B87280000000086100B30FB00263002
:10012600FC005D30FD00FD0B9628FC0B9628FB0BB2
:1001360096280000000086140B30FB002630FC00D9
:100146005D30FD00FD0BA528FC0BA528FB0BA528A3
:100156000000000086100B30FB002630FC005D30EE
:10016600FD00FD0BB428FC0BB428FB0BB4280000E3
:0601760000000728BD286F
:02400E006A2125
:00000001FF
