:10000000CFEF03F00000000000EF00F00000000060
:0A0010000000000000000000F3D71C
:0C001C00100E0D6E0D2EFED7000012001D
:10002800080E0C6E230E0D6E0D2EFED70C2EFCD76F
:020038001200B4
:04003A0000001200B0
:10003E00000176BF02D08A9601D08A8676BD02D0A4
:10004E008A9401D08A8476BB02D08A9201D08A82A9
:10005E0076B902D08A9001D08A8064B102D08A88A3
:10006E0001D08A988A8AE2DF8A9A76B702D08A9677
:10007E0001D08A8676B502D08A9401D08A8476B36E
:10008E0002D08A9201D08A8276B102D08A9001D0B3
:10009E008A8064B102D08A8801D08A988A8AC6DFA3
:0E00AE008A9A64A102D0B9DF01D0B1DF12003E
:1000BC00086A096A100E0C6E0134083609360450B1
:1000CC00085E0550D8A0053C095ED8B007D0045096
:1000DC0008260550D8B0053C0926D89000360136C4
:0600EC000C2EEAD7120001
:0E00F200000164916FC076F0A1DF64811200FE
:100100000001736B050E735D0AE273517125E16E98
:10011000000E7221E26E200EE66E732BF3D7735140
:100120007125E16E000E7221E26EE66A730773516B
:100130007125746F000E7221756F0A0E046E000E29
:10014000056E6FC000F070C001F0B8DF08C000F0AD
:1001500009C001F0300E002674C0E1FF75C0E2FF57
:1001600000C0E6FF0A0E046E000E056E6FC000F0C0
:1001700070C001F0A3DF00C06FF001C070F0000E8E
:10018000011802E1000E001801E102D07307CFD779
:0201900012005B
:10019200939A939893909392939493968A9A8A9827
:1001A2008A968A948A928A903EDF3DDF3CDF8A8279
:1001B2008A808A8A41DF8A9A36DF8A8A3DDF8A9A72
:1001C20032DF8A8A39DF8A9A2EDF8A908A8A34DF7E
:1001D2008A9A29DF8A8A30DF8A9A8A928A868A8A6A
:1001E2002BDF8A9A20DF8A968A808A8A25DF8A9A7A
:1001F2008A908A8A21DF8A9A16DF8A8A1DDF8A9A82
:100202008A808A8A19DF8A9A0EDF8A908A8A14DFA4
:100212008A9A8A868A848A828A808A8A0DDF8A9A60
:0802220002DF000164811200FB
:10022A0000016B6B6C6B65C06DF066C06EF0800E82
:10023A006619006E800E005C02E1000E655D0BE23D
:10024A00010E6B6F000E6C6F655100086D6F66C012
:10025A006EF0000E6E576DC06FF06EC070F067C022
:10026A0071F068C072F047DF060E696F000E6A6FA0
:10027A00000E006E6A51005C02E16951000819E241
:10028A0069516725E16E6A516821E26E010E695D66
:10029A00006E000E6A59016E00506725E96E015022
:1002AA006821EA6EEECFE6FF010E695F000E6A5B17
:1002BA00DFD767C0E1FF68C0E2FF200EE66E6B5130
:1002CA006C111AE0696B6A6B69516725E96E6A51AC
:1002DA006821EA6EEE50200A03E1694B6A2BF4D7D3
:1002EA00010E695F000E6A5B69516725E16E6A510A
:0A02FA006821E26E2D0EE66E120080
:1003040010D0800E0001656F1AD0C00E656F17D033
:10031400940E656F14D0D40E656F11D0800E656F86
:100324000ED000016551010AECE06551020AEDE0CE
:100334006551030AEDE06551040AEDE0EFD7660567
:10034400006E6551002600C065F000C076F075DED1
:100354006491696B69516725E96E000E6821EA6E44
:10036400EE520BE069516725E96E000E6821EA6ED2
:0E037400EECF6FF0BCDE692BEDD76481120076
:100382000900F5CFE6FF0006FBE10106F9E11200E4
:10039200FFDE010E766F52DE0C0E766F4FDE010E1F
:1003A200656F010E666F370E676F000E686FA9DF0B
:1003B200030E656F010E666F4A0E676F000E686F5F
:0403C200A0DF1200A6
:1003C600000E2D1802E1000E2C1809E1848480929B
:1003D600809480968098808A818C819E8B94000E72
:1003E6002D1802E1010E2C180AE184848092809473
:1003F60080968088809A818C819E8B848B96000E55
:100406002D1802E1020E2C180AE184848092809451
:1004160080968098809A818C819E8B868B98000E20
:100426002D1802E1030E2C180AE184848092809430
:1004360080968088808A819C819E8B888B9A000E0C
:100446002D1802E1040E2C180AE18484809280940F
:1004560080968098808A819C819E8B8A8B9C000ED8
:100466002D1802E1050E2C180AE1848480928094EE
:1004760080968088809A819C819E8B8C8B9E000EB4
:100486002D1802E1060E2C180AE1848480928094CD
:1004960080968098809A819C819E8B8E8C90000E8F
:1004A6002D1802E1070E2C180AE18494809280949C
:1004B60080968088809A819C818E8C808C92000E9A
:1004C6002D1802E1080E2C180AE18494809280947B
:1004D60080968098809A819C818E8C828C94000E66
:1004E6002D1802E1090E2C180AE18494809280945A
:1004F60080968088808A818C819E8C848C96000E62
:100506002D1802E10A0E2C180AE184948092809438
:1005160080968098808A818C819E8C868C98000E2D
:100526002D1802E10B0E2C180AE184948092809417
:1005360080968088809A818C819E8C888C9A000E09
:100546002D1802E10C0E2C180AE1849480928094F6
:1005560080968098809A818C819E8C8A8C9C000ED5
:100566002D1802E10D0E2C180AE1849480928094D5
:1005760080968088808A819C819E8C8C8C9E000EC1
:100586002D1802E10E0E2C180AE1849480928094B4
:1005960080968098808A819C819E8C8E8D90000E9C
:1005A6002D1802E10F0E2C180AE184948092809493
:1005B60080968088809A819C819E8D808D92000E87
:1005C6002D1802E1100E2C180AE184948092809472
:1005D60080968098809A819C819E8D828D80120063
:1005E600800E2D18006E800E005C02E1000E2C5C61
:1005F60038E3800E2D18006E800E005C02E1100EAE
:100606002C5C2FE282B02DD02C4A2D2A020E0B6EC6
:10061600860E0C6E990E0D6E0D2EFED70C2EFCD787
:100626000B2EFAD72CC065F02DC066F05D0E0001CA
:10063600676F000E686FF6DD030E656F0D0E666F51
:100646005D0E676F000E686F5ADE020E0B6E860E29
:100656000C6E990E0D6E0D2EFED70C2EFCD70B2EA2
:04066600FAD71200AD
:10066A00800E2D18006E800E005C02E1010E2C5CDB
:10067A0038E3800E2D18006E800E005C02E1110E28
:10068A002C5C2FE282B22DD0010E2C5E000E2D5A68
:10069A00020E0B6E860E0C6E990E0D6E0D2EFED787
:1006AA000C2EFCD70B2EFAD72CC065F02DC066F0A5
:1006BA005D0E0001676F000E686FB2DD030E656F95
:1006CA000D0E666F5D0E676F000E686F16DE0D0EFB
:1006DA000C6EFB0E0D6E0D2EFED70C2EFCD70000F5
:0406EA0000001200FA
:1006EE00040E0001656F010E666F1C0E676F000E23
:1006FE00686F01DE020E656F010E666F230E676F67
:10070E00000E686FF8DD030E0B6E8A0E0C6E550E22
:10071E000D6E0D2EFED70C2EFCD70B2EFAD7000029
:10072E000000080E766F84DC030E0B6E8A0E0C6EC4
:10073E00550E0D6E0D2EFED70C2EFCD70B2EFAD7A6
:10074E00000000000C0E766F73DC030E0B6E8A0E2B
:10075E000C6E550E0D6E0D2EFED70C2EFCD70B2EDD
:08076E00FAD7000000001200A0
:10077600020E0001656F010E666F2E0E676F000E8A
:10078600686FBDDD040E656F010E666F150E676F2F
:08079600000E686FB4DD1200D3
:10079E0055EC04F0936A816A9480948294949496B2
:1007AE009498949A949C949E82908292829482962B
:1007BE008298829A829C829E959095929594959617
:1007CE009598959A959C959E839083928394839603
:1007DE008398839A839C839E969096929694849007
:1007EE0084928494929292969298929A9290CADD62
:1007FE00E3DDF2DE33DF800E2D18006E800E005C1E
:10080E0002E1100E2C5C02E2AFDF07D0000E2D18B5
:10081E0002E1100E2C1801E163DF020E0B6E040EC6
:10082E000C6EBA0E0D6E0D2EFED70C2EFCD70B2EA7
:10083E00FAD700008970020E0B6E040E0C6EBA0E03
:10084E000D6E0D2EFED70C2EFCD70B2EFAD70000F8
:04085E00CFD7FFD71A
:1008AA0010EE15F0480E006E010E016E620EF66E25
:0E08BA00080EF76E000EF86EC1EC01F0120091
:0708620020202020202000CF
:070869004C4F5441444F00C5
:090870002020202020202020007F
:0208790000007D
:09087B0054454D2056414741004F
:10088400564147415320544F542E3A2020202020D3
:03089400313600FA
:100897005641474153204F4355502E3A20202020A0
:0308A700203000FE
:020000040030CA
:0D000100231F3CFFBF81FF0FC00FE00F4029
:00000001FF
