:020000000329D2
:0E000600213083120313FD00FD0B07280800B4
:100014000F3083120313FC004730FD00FD0B102842
:0A002400FC0B10280000000008008B
:06002E00000000000800C4
:1000340083120313B81B2028861221288616381B26
:100044002528061226280616B81A2A2886112B28CF
:100054008615381A2F28061130280615301834282A
:10006400061435280610861417208610B8193C2863
:1000740086123D288616381941280612422806168B
:10008400B818462886114728861538184B280611B3
:100094004C280615301850280614512806108614CA
:1000A40017208610301C58280A20592803200800DD
:0E00B4008312031332088A003108820008000C
:1000C2008312031330103708B8001A2030140800C6
:1000D2008316031386100610861006118611061267
:1000E20083128610061086120612861106110A2045
:1000F2000A200A20861506158614172086100A2063
:100102008614172086100A208614172086100A20CB
:1001120006118614172086100A20861417208610CE
:10012200861186168614172086100A208612061556
:1001320086141720861006118614172086100A20AE
:1001420086141720861006158614172086100A209A
:1001520006118614172086108616061686150615B1
:0C0162008614172086100A2030140800B4
:10016E00C928803083120313B300DC28C030B300DB
:10017E00DC289430B300DC28D430B300DC28803087
:10018E00B300DC28831203133308013A0319B8288D
:10019E003308023A0319BD283308033A0319C0285D
:1001AE003308043A0319C328C6283403F000330871
:1001BE00F0077008B3007008B8001A203010B601AE
:1001CE0036083507840000080319F5283608350768
:1001DE0084000008B7006120B60AE7283014080032
:1001EE005A208A110A128000840AB10A0319B20A2F
:0801FE00F003031DF7280800BF
:100206004C3083120313A0004530A1004430A200F5
:100216002030A3004F30A4004630A5004630A6008B
:10022600A7014C30A8004530A9004430AA00203070
:10023600AB004F30AC004E30AD002030AE00AF0109
:100246008316051485108312051085108316860102
:100256008312860169200130B8001A200C30B800DC
:100266001A2005184B2985140130B3000130B4005B
:100276002830B500B7200330FB000830FC0077308B
:10028600FD00FD0B4429FC0B4429FB0B4429532993
:1002960085100130B3000130B4002030B500B7201E
:0402A600342954297A
:02400E006A2125
:00000001FF
