:100000000C942F010C9460010C9460010C9460011D
:100010000C9460010C9460010C9460010C946001DC
:100020000C9460010C9460010C9460010C946001CC
:100030000C9460010C9460010C9460010C946001BC
:100040000C9460010C9439060C9460010C946001CE
:100050000C9460010C9460010C9460010C94650593
:100060000C9460010C9460010C9460010C9460018C
:100070000C9460010C9460010C9460010C9460017C
:100080000C940B060C9460010C9460010C946001BC
:100090000C9460010C9460010C9460010C9460015C
:1000A0000C9460010C9460010C94DD050C946001CB
:1000B0000C9460010C9460010C9460010C94AF05E9
:1000C0000C9460010C9460010C9460010C9460012C
:1000D0000C9460010C9460010C9460010C9460011C
:1000E0000C9460010C9437020C9464020C945F052C
:1000F0000C946E020C9444020C9456020C943B0235
:100100000C9460020C9433020C9469020C942F023C
:100110000C94DE010C940C040C949A0E0C9448027E
:100120000C946A020C940B040C9452020C943E0240
:100130000C945C020C9429020C944E0200002100E5
:10014000240027002A002D003000330001010000A8
:10015000040107010A0100002200250028002B00ED
:100160002E003100340002010000050108010B01DE
:10017000000020002300260029002C002F00320060
:100180000001000003010601090105050505070539
:1001900008080808020202020A0A08080404040403
:1001A000010101010101010103030303030303032F
:1001B000040707070C0C0C0C0C0C0C0C02020202BE
:1001C00006060606060606060B0B0B0B0B0B0B0BA7
:1001D0000102102020080810204010204080020159
:1001E000020108040201010204081020408080403E
:1001F000201008040201800402018040201008043D
:1002000002010804020101020408102040800102DA
:1002100004081020408000000A0B02090C0D0E0893
:1002200007030401000000000000000000000000BF
:1002300000000000000000000000000000000000BE
:10024000000012111000000000000000000000007B
:100250000000000000000000000000009A0E1124C1
:100260001FBECFEFD1E2DEBFCDBF00E00CBF12E07A
:10027000A0E0B2E0E8EBFEE100E00BBF02C00790B7
:100280000D92A033B107D9F722E0A0E3B2E001C09C
:100290001D92AD3EB207E1F711E0CFE2D1E000E000
:1002A00006C021970109802FFE010E94520FCE3215
:1002B000D10780E00807A9F70E9467060C945A0F3F
:1002C0000C940000CF92DF92EF92FF92DC01A032FB
:1002D00082E0B807D4F5A53BB10514F0A4EBB0E07B
:1002E0004091D30228E830E0241B310947FD3395C3
:1002F000220F331F220F331F6901330FEE08FF084F
:100300004091D40228E532E0241B310947FD3395A2
:10031000220F331F220F331F032E000C440B550BEB
:100320002C193D094E095F09B7FF02C0B0E0A0E0FB
:100330000E940D0F24EB30E040E050E00E94E30EFD
:10034000C20ED31EE41EF51ED601E091D202E033A8
:1003500080F52091D30288E890E0821B910927FD67
:100360009395880F991F880F991FA817B90784F0D4
:100370002091D40288E592E0821B910927FD939594
:10038000880F991F880F991FA817B9070CF4CD0182
:100390000297880F991F4FB7F8942E2F30E0F9017C
:1003A000EE0FFF1FE20FF31FEE5BFD4F9283818381
:1003B0004FBFFF90EF90DF90CF900895AF92BF9224
:1003C000CF92DF92EF92FF920F931F93CF93DF9321
:1003D0006C017B018B01040F151FEB015E01AE1850
:1003E000BF08C017D10759F06991D601ED91FC9172
:1003F0000190F081E02DC6011995892B79F7C5018F
:10040000DF91CF911F910F91FF90EF90DF90CF90F0
:10041000BF90AF9008958150823108F05AC0E82F04
:10042000F0E08827E95EFD4F8F4F0C94520F3702A2
:100430003B0229022F02330269023E0244024802B3
:100440004E02520256025C026002690264026A02B3
:100450006E02809180008F77809380000895809154
:1004600080008F7DF9CF80918000877FF5CF84B5A4
:100470008F7784BD089584B58F7DFBCF8091B000C8
:100480008F778093B00008958091B0008F7DF9CF71
:10049000809190008F7780939000089580919000D4
:1004A0008F7DF9CF80919000877FF5CF8091A0005C
:1004B0008F778093A00008958091A0008F7DF9CF61
:1004C0008091A000877FF5CF809120018F77809366
:1004D00020010895809120018F7DF9CF8091200126
:1004E000877FF5CFCF93DF93282F30E0F901EA5EC5
:1004F000FD4F8491F901E053FE4FD491F901E65785
:10050000FE4FC491CC23A1F081110E940B02EC2F6D
:10051000F0E0EE0FFF1FE059FE4FA591B491EC9172
:10052000ED2381E090E009F480E0DF91CF91089520
:1005300080E090E0FACF1F93CF93DF93282F30E035
:10054000F901EA5EFD4F8491F901E053FE4FD49129
:10055000F901E657FE4FC491CC23A9F0162F811163
:100560000E940B02EC2FF0E0EE0FFF1FEA5AFE4F45
:10057000A591B4918FB7F894EC91111108C0D09562
:10058000DE23DC938FBFDF91CF911F910895DE2B87
:10059000F8CFCF93DF9390E0FC01E053FE4F24911E
:1005A00086579E4FFC0184918823D1F090E0880FFC
:1005B000991FFC01E45CFE4FA591B491FC01EA5A3D
:1005C000FE4FC591D49161110EC09FB7F8948C91E4
:1005D000E22FE0958E238C932881E223E8839FBF4E
:1005E000DF91CF9108958FB7F894EC91E22BEC93C3
:1005F0008FBFF6CF3FB7F89480913A0290913B02BB
:10060000A0913C02B0913D0226B5A89B05C02F3FAA
:1006100019F00196A11DB11D3FBFBA2FA92F982F28
:100620008827BC01CD01620F711D811D911D42E023
:10063000660F771F881F991F4A95D1F708958F92EB
:100640009F92AF92BF92CF92DF92EF92FF924B01B7
:100650005C010E94FA026B017C010E94FA026C1993
:100660007D098E099F09683E734081059105A8F3B5
:1006700021E0821A9108A108B10888EEC80E83E033
:10068000D81EE11CF11C81149104A104B10429F7C6
:10069000FF90EF90DF90CF90BF90AF909F908F90A2
:1006A0000895AF92BF92CF92DF92EF92FF920F9395
:1006B0001F93CF93DF936B017A01EC01CF5CDD4F89
:1006C00028813CE0389F8001399F100D1124A090B3
:1006D0003002B12C27FF1FC0FB01118210828881DC
:1006E0008F5F888388819801280F311D87FD3A9597
:1006F000F6012A153B051CF488818C30C4F18081F9
:100700009181049680349C4908F473C0F60180817D
:100710009181049670C088819801280F311D87FD52
:100720003A952A153B05DCF68881A801480F511D32
:1007300087FD5A95FA01EE0FFF1FE40FF51FEE5BE0
:10074000FD4F808186FFCBCF8881F801E80FF11D36
:1007500087FDFA95CF01EE0FFF1FE80FF91FEE5B43
:10076000FD4F808160E08F730E949B02B8CF808133
:1007700091812881A801420F511D27FD5A959A01A8
:10078000FA01EE0FFF1FE20FF31FEE5BFD4F218119
:100790003281820F931FF7019183808388819801B2
:1007A000280F311D87FD3A95F901EE0FFF1FE20F6B
:1007B000F31FEE5BFD4F808186FF22C08881080F0A
:1007C000111D87FD1A95F801EE0FFF1FE00FF11FB5
:1007D000EE5BFD4F808161E08F73DF91CF911F91C0
:1007E0000F91FF90EF90DF90CF90BF90AF900C945F
:1007F0009B0280E49CE9F701918380838FEF8883DB
:10080000DF91CF911F910F91FF90EF90DF90CF90EC
:10081000BF90AF900895089590E080E00895CF9341
:10082000DF93EC0160E08E810E949B0261E08E818B
:100830000E949B0260E08E810E949B028BE891E007
:100840000197F1F7DF91CF910895CF92DF92EF9268
:10085000FF920F931F93CF93DF936C017C0187E08E
:10086000E80EF11CD0E0C0E0062F10E0B8010C2E1D
:1008700002C0759567950A94E2F76170F70181915E
:100880007F010E949B022196C430D10579F7C601F1
:10089000DF91CF911F910F91FF90EF90DF90CF905C
:1008A0000C940F04CF92DF92EF92FF920F931F935D
:1008B000CF93DF93EC01F62E642F8C810E949B0274
:1008C0008D818F3F19F060E00E949B020F2D10E098
:1008D0008F8584FF25C06E0187E0C80ED11CF12CE6
:1008E000E12CB8010E2C02C0759567950A94E2F7C9
:1008F0006170F60181916F010E949B02FFEFEF1A78
:10090000FF0A88E0E816F10461F7CE01DF91CF918C
:100910001F910F91FF90EF90DF90CF900C940F04F8
:10092000B80184E0759567958A95E1F7CE010E943C
:1009300025046F2DCE01DF91CF911F910F91FF9074
:10094000EF90DF90CF900C94250440E0682F85ED68
:1009500092E00C945204CF93DF93613029F0909190
:10096000E40298609093E4026093E8021092E90236
:1009700090E49093EA028093EB02805C8093EC0217
:1009800061E08091D9020E94C9028091DA028F3F12
:1009900019F061E00E94C90261E08091DB020E94CF
:1009A000C902C5EDD2E09E01255D32408091E4028E
:1009B00084FD0BC084E090E021962817390744F4A9
:1009C00061E08E810E94C902EECF88E090E0F4CF12
:1009D0008BE39DE00197F1F760E08091D9020E94DE
:1009E0009B0260E08091DB020E949B028091DA0210
:1009F0008F3F19F060E00E949B028091E40284FD29
:100A000039C063E085ED92E00E942504CBE4D6E492
:100A1000CE010197F1F763E085ED92E00E94250495
:100A20002197F1F763E085ED92E00E94250483E5CC
:100A300092E00197F1F762E085ED92E00E942504D3
:100A40008091E40280620E94A50484E08093E50224
:100A50008CE00E94A50481E00E94A5048BE39FE145
:100A60000197F1F782E08093E60286E0DF91CF9173
:100A70000C94A50480620E94A5048BE496E401977F
:100A8000F1F78091E40280620E94A50483E592E080
:100A90000197F1F78091E40280620E94A504D0CF13
:100AA0009091E802691710F06FEF690FE62FF0E000
:100AB000EB52FD4F9489890F80680C94A50441E0A6
:100AC0000E94520481E090E008951F920F920FB6A9
:100AD0000F9211242F933F938F939F93AF93BF93C4
:100AE0008091360290913702A0913802B09139027C
:100AF0003091350223E0230F2D3758F50196A11DC3
:100B0000B11D209335028093360290933702A09353
:100B10003802B093390280913A0290913B02A09141
:100B20003C02B0913D020196A11DB11D80933A0295
:100B300090933B02A0933C02B0933D02BF91AF91D2
:100B40009F918F913F912F910F900FBE0F901F900B
:100B5000189526E8230F0296A11DB11DD2CF1F9232
:100B60000F920FB60F9211240BB60F922F933F9353
:100B70004F935F936F937F938F939F93AF93BF93A5
:100B8000EF93FF9348E251E064E271E090E080E08F
:100B90000E945103FF91EF91BF91AF919F918F916F
:100BA0007F916F915F914F913F912F910F900BBE6D
:100BB0000F900FBE0F901F9018951F920F920FB6B7
:100BC0000F9211240BB60F922F933F934F935F9385
:100BD0006F937F938F939F93AF93BF93EF93FF9305
:100BE00048EA50E064EA70E083E090E00E9451033C
:100BF000FF91EF91BF91AF919F918F917F916F91F5
:100C00005F914F913F912F910F900BBE0F900FBEB0
:100C10000F901F9018951F920F920FB60F921124EC
:100C20000BB60F922F933F934F935F936F937F93E6
:100C30008F939F93AF93BF93EF93FF9348E950E057
:100C400064E970E082E090E00E945103FF91EF912F
:100C5000BF91AF919F918F917F916F915F914F91D4
:100C60003F912F910F900BBE0F900FBE0F901F90D2
:100C700018951F920F920FB60F9211240BB60F9278
:100C80002F933F934F935F936F937F938F939F9394
:100C9000AF93BF93EF93FF9348E850E064E870E0B0
:100CA00081E090E00E945103FF91EF91BF91AF91DD
:100CB0009F918F917F916F915F914F913F912F9174
:100CC0000F900BBE0F900FBE0F901F901895789449
:100CD00084B5826084BD84B5816084BD85B5826041
:100CE00085BD85B5816085BD80916E0081608093F2
:100CF0006E0010928100809181008260809381005B
:100D0000809181008160809381008091800081606A
:100D1000809380008091B10084608093B1008091C5
:100D2000B00081608093B0008091910082608093D8
:100D3000910080919100816080939100809190005A
:100D40008160809390008091A10082608093A100D7
:100D50008091A10081608093A1008091A0008160BA
:100D60008093A00080912101826080932101809175
:100D70002101816080932101809120018160809315
:100D8000200180917A00846080937A0080917A00BB
:100D9000826080937A0080917A00816080937A00EB
:100DA00080917A00806880937A001092C10061E09F
:100DB0008DE00E94C90261E08AE00E94C90261E000
:100DC00089E00E94C90261E088E00E94C90260E0F7
:100DD00086E10E94C90260E087E10E94C90261E0E9
:100DE0008EE10E94C90261E08FE10E94C90261E0C8
:100DF00080E20E94C90261E081E20E94C90261E0D2
:100E000082E20E94C90261E083E20E94C90261E0BD
:100E100084E20E94C90261E085E20E94C90261E0A9
:100E200086E20E94C90261E087E20E94C90261E095
:100E300088E20E94C90261E089E20E94C90261E081
:100E40008AE20E94C90261E08BE20E94C90261E06D
:100E50008CE20E94C90261E08DE20E94C90261E059
:100E60008EE20E94C90261E08FE20E94C90261E045
:100E700080E30E94C90261E081E30E94C90261E04F
:100E800082E30E94C90261E083E30E94C90261E03B
:100E90008CE10E94C90261E08DE10E94C90261E01B
:100EA00084E30E94C90261E085E30E94C90260E018
:100EB0008DE00E949B0260E08AE00E949B0260E05D
:100EC00089E00E949B0260E088E00E949B0261E052
:100ED00086E10E949B0261E087E10E949B0260E044
:100EE0008EE10E949B0260E08FE10E949B0260E025
:100EF00080E20E949B0260E081E20E949B0260E02F
:100F000082E20E949B0260E083E20E949B0260E01A
:100F100084E20E949B0260E085E20E949B0260E006
:100F200086E20E949B0260E087E20E949B0260E0F2
:100F300088E20E949B0260E089E20E949B0260E0DE
:100F40008AE20E949B0260E08BE20E949B0260E0CA
:100F50008CE20E949B0260E08DE20E949B0260E0B6
:100F60008EE20E949B0260E08FE20E949B0260E0A2
:100F700080E30E949B0260E081E30E949B0260E0AC
:100F800082E30E949B0260E083E30E949B0260E098
:100F900084E30E949B0260E085E30E949B028091B3
:100FA000D202803308F052C061E086E00E94C9029C
:100FB0008091D202282F30E0F901EE0FFF1FE20FDF
:100FC000F31FEE5BFD4F9081907C966090831092B2
:100FD000D3021092D4022CE0622F0E94460F829F0F
:100FE000B001112430E020E0AB01420F531FFA01A1
:100FF000EE0FFF1FE40FF51FEE5BFD4F908196FD96
:1010000017C02F5F3F4F2C30310571F7813009F049
:10101000FCC01092800082E08093810010928500D5
:1010200010928400B19A80916F00826080936F006B
:10103000E091D2028E2F90E0FC01EE0FFF1FE80F2F
:10104000F91FEE5BFD4F80818064808364E084E162
:101050000E94AB0480E0E82E80E0F82E04EB10E064
:10106000C0914002D0914102209709F0FAC060E09F
:101070008DE00E949B0261E08AE00E949B0260E09A
:1010800089E00E949B0260E088E00E949B0260E091
:1010900088E10E949B0260E089E10E949B0260E07F
:1010A0008AE10E949B0260E08BE10E949B0260E06B
:1010B00082E20E949B02C530D10509F028C161E09F
:1010C0008DE00E949B0260E08AE00E949B0260E04B
:1010D00089E00E949B0260E088E00E949B0261E040
:1010E00088E10E949B0260E089E10E949B0261E02E
:1010F0008AE10E949B0260E08BE10E949B0261E01A
:1011000086E20E949B0260E087E20E949B02CA3056
:10111000D10509F028C161E08DE00E949B0260E0EA
:101120008AE00E949B0260E089E00E949B0260E0EE
:1011300088E00E949B0260E088E10E949B0260E0E0
:1011400089E10E949B0260E08AE10E949B0260E0CC
:101150008BE10E949B0261E08BE20E949B0260E0B7
:101160008CE20E949B02CF30D10509F028C160E0DB
:101170008DE00E949B0260E08AE00E949B0260E09A
:1011800089E00E949B0260E088E00E949B0261E08F
:1011900088E10E949B0260E089E10E949B0261E07D
:1011A0008AE10E949B0260E08BE10E949B0261E069
:1011B00080E30E949B0260E081E30E949B02C431B5
:1011C000D10509F028C160E08DE00E949B0260E03B
:1011D0008AE00E949B0260E089E00E949B0260E03E
:1011E00088E00E949B0260E088E10E949B0260E030
:1011F00089E10E949B0260E08AE10E949B0260E01C
:101200008BE10E949B0261E08CC2823061F41092FB
:10121000900080939100109295001092940088BBEA
:101220008093710005CF833069F41092A00082E0B2
:101230008093A1001092A5001092A40089BB809316
:101240007200F6CE8111F4CE1092200182E08093DC
:10125000210110922501109224018ABB8093730012
:10126000E7CEC130D10539F561E08DE00E949B02E7
:1012700060E08AE00E949B0260E089E00E949B029D
:1012800060E088E00E949B0261E088E10E949B028E
:1012900060E089E10E949B0260E08AE10E949B027B
:1012A00061E08BE10E949B0261E082E20E949B026E
:1012B00060E083E2FECEC230D10509F0D6C061E025
:1012C0008DE00E949B0260E08AE00E949B0260E049
:1012D00089E00E949B0260E088E00E949B0260E03F
:1012E00088E10E949B0260E089E10E949B0260E02D
:1012F0008AE10E949B0261E08BE10E949B0261E017
:1013000083E20E949B0260E084E20E949B02C6305E
:10131000D10509F0D6C061E08DE00E949B0260E03B
:101320008AE00E949B0260E089E00E949B0260E0EC
:1013300088E00E949B0260E088E10E949B0260E0DE
:1013400089E10E949B0261E08AE10E949B0260E0C9
:101350008BE10E949B0261E087E20E949B0260E0B9
:1013600088E20E949B02CB30D10509F0D6C060E034
:101370008DE00E949B0260E08AE00E949B0260E098
:1013800089E00E949B0260E088E00E949B0261E08D
:1013900088E10E949B0260E089E10E949B0260E07C
:1013A0008AE10E949B0261E08BE10E949B0261E066
:1013B0008CE20E949B0260E08DE20E949B02C031A1
:1013C000D10509F0D6C060E08DE00E949B0260E08C
:1013D0008AE00E949B0260E089E00E949B0260E03C
:1013E00088E00E949B0260E088E10E949B0260E02E
:1013F00089E10E949B0261E08AE10E949B0260E019
:101400008BE10E949B0261E081E30E949B0260E00D
:1014100082E30E949B02C431D10508F00AC386E131
:101420000E947202892B09F004C32196D0934102D5
:10143000C093400210923F0210923E02C0913E02C1
:10144000D0913F02C53BD1050CF0F0C1CE010E9406
:1014500062016FE070E080E090E00E941F0321963F
:10146000D0933F02C0933E02E9CFC330D10509F0CB
:10147000ABC061E08DE00E949B0260E08AE00E94C8
:101480009B0260E089E00E949B0260E088E00E948D
:101490009B0261E088E10E949B0261E089E10E9479
:1014A0009B0261E08AE10E949B0260E08BE10E9466
:1014B0009B0261E084E20E949B0260E085E20E9460
:1014C0009B02C730D10509F02EC161E08DE00E947A
:1014D0009B0260E08AE00E949B0260E089E00E943B
:1014E0009B0260E088E00E949B0261E088E10E942C
:1014F0009B0261E089E10E949B0260E08AE10E9418
:101500009B0260E08BE10E949B0261E088E20E9406
:101510009B0260E089E20E949B02CC30D10509F079
:101520002EC160E08DE00E949B0260E08AE00E9494
:101530009B0260E089E00E949B0260E088E00E94DC
:101540009B0260E088E10E949B0260E089E10E94CA
:101550009B0260E08AE10E949B0261E08BE10E94B5
:101560009B0261E08DE20E949B0260E08EE20E949D
:101570009B02C131D10509F02EC160E08DE00E94CF
:101580009B0260E08AE00E949B0260E089E00E948A
:101590009B0260E088E00E949B0261E088E10E947B
:1015A0009B0261E089E10E949B0260E08AE10E9467
:1015B0009B0260E08BE10E949B0261E082E30E945B
:1015C0009B0260E083E325CFC430D10509F073CDE1
:1015D00061E08DE00E949B0260E08AE00E949B0235
:1015E00060E089E00E949B0260E088E00E949B022C
:1015F00060E088E10E949B0261E089E10E949B0219
:1016000061E08AE10E949B0260E08BE10E949B0204
:1016100061E085E20E949B0260E086E20E949B02FC
:10162000C930D10509F073CD61E08DE00E949B02C5
:1016300060E08AE00E949B0260E089E00E949B02D9
:1016400060E088E00E949B0261E088E10E949B02CA
:1016500060E089E10E949B0260E08AE10E949B02B7
:1016600060E08BE10E949B0261E08AE20E949B02A3
:1016700060E08BE20E949B02CE30D10509F073CD71
:1016800060E08DE00E949B0260E08AE00E949B0285
:1016900060E089E00E949B0260E088E00E949B027B
:1016A00060E088E10E949B0261E089E10E949B0268
:1016B00061E08AE10E949B0260E08BE10E949B0254
:1016C00061E08FE20E949B0260E080E30E949B0247
:1016D000C331D10509F073CD60E08DE00E949B021B
:1016E00060E08AE00E949B0260E089E00E949B0229
:1016F00060E088E00E949B0261E088E10E949B021A
:1017000060E089E10E949B0260E08AE10E949B0206
:1017100060E08BE10E949B0261E08CE10E949B02F1
:1017200060E08DE176CEC830D10509F079CF61E077
:101730008DE00E949B0260E08AE00E949B0260E0D4
:1017400089E00E949B0260E088E00E949B0260E0CA
:1017500088E10E949B0261E089E10E949B0260E0B7
:101760008AE10E949B0260E08BE10E949B0261E0A3
:1017700089E20E949B0260E08AE20E949B02CD30D7
:10178000D10509F079CF60E08DE00E949B0260E016
:101790008AE00E949B0260E089E00E949B0260E078
:1017A00088E00E949B0261E088E10E949B0261E068
:1017B00089E10E949B0261E08AE10E949B0260E055
:1017C0008BE10E949B0261E08EE20E949B0260E03E
:1017D0008FE20E949B02C231D10509F079CF60E00F
:1017E0008DE00E949B0260E08AE00E949B0260E024
:1017F00089E00E949B0260E088E00E949B0260E01A
:1018000088E10E949B0261E089E10E949B0260E006
:101810008AE10E949B0260E08BE10E949B0261E0F2
:1018200083E30E949B0260E08CE1F3CD61E084E3FE
:101830000E949B0261E08EE10E949B0260E08FE1CA
:101840000E949B0260E080E20E949B0260E081E2D5
:101850000E949B0264EF71E080E090E00E941F0311
:1018600060E08EE10E949B0261E08FE10E949B029A
:1018700060E080E20E949B0260E081E20E949B02A5
:1018800064EF71E080E090E00E941F0361E08EE170
:101890000E949B0261E08FE10E949B0260E080E277
:1018A0000E949B0260E081E20E949B0264EF71E073
:1018B00080E090E00E941F0360E08EE10E949B02A6
:1018C00060E08FE10E949B0261E080E20E949B0247
:1018D00060E081E20E949B0264EF71E080E090E0B2
:1018E0000E941F0361E08EE10E949B0260E08FE195
:1018F0000E949B0261E080E20E949B0260E081E224
:101900000E949B0264EF71E080E090E00E941F0360
:1019100060E08EE10E949B0261E08FE10E949B02E9
:1019200061E080E20E949B0260E081E20E949B02F3
:1019300064EF71E080E090E00E941F0361E08EE1BF
:101940000E949B0261E08FE10E949B0261E080E2C5
:101950000E949B0260E081E20E949B0264EF71E0C2
:1019600080E090E00E941F0360E08EE10E949B02F5
:1019700060E08FE10E949B0260E080E20E949B0297
:1019800061E081E20E949B0264EF71E080E090E000
:101990000E941F0361E08EE10E949B0260E08FE1E4
:1019A0000E949B0260E080E20E949B0261E081E273
:1019B0000E949B0264EF71E080E090E00E941F03B0
:1019C00060E08EE10E949B0260E08FE10E949B023A
:1019D00060E080E20E949B0260E081E20E949B0244
:1019E00064EF71E080E090E00E941F0360E084E318
:1019F0000E949B0210933F0200933E02C0913E0260
:101A0000D0913F02D7FD0FC0CE010E9462016FE06E
:101A100070E080E090E00E941F032197D0933F0286
:101A2000C0933E02EBCF6CE271E080E090E00E9458
:101A30001F03C0914002D09141022197C431D105CA
:101A400008F027C187E10E947202892B09F021C1A9
:101A5000D0934102C093400210923F0210923E0286
:101A6000C0913E02D0913F02C53BD1057CF4CE012E
:101A70000E9462016FE070E080E090E00E941F032E
:101A80002196D0933F02C0933E02EACF61E084E307
:101A90000E949B0261E08EE10E949B0260E08FE168
:101AA0000E949B0260E080E20E949B0261E081E272
:101AB0000E949B0264EF71E080E090E00E941F03AF
:101AC00060E08EE10E949B0260E08FE10E949B0239
:101AD00060E080E20E949B0261E081E20E949B0242
:101AE00064EF71E080E090E00E941F0361E08EE10E
:101AF0000E949B0261E08FE10E949B0261E080E214
:101B00000E949B0260E081E20E949B0264EF71E010
:101B100080E090E00E941F0360E08EE10E949B0243
:101B200061E08FE10E949B0261E080E20E949B02E3
:101B300060E081E20E949B0264EF71E080E090E04F
:101B40000E941F0361E08EE10E949B0260E08FE132
:101B50000E949B0261E080E20E949B0260E081E2C1
:101B60000E949B0264EF71E080E090E00E941F03FE
:101B700060E08EE10E949B0260E08FE10E949B0288
:101B800061E080E20E949B0260E081E20E949B0291
:101B900064EF71E080E090E00E941F0361E08EE15D
:101BA0000E949B0261E08FE10E949B0260E080E264
:101BB0000E949B0260E081E20E949B0264EF71E060
:101BC00080E090E00E941F0360E08EE10E949B0293
:101BD00061E08FE10E949B0260E080E20E949B0234
:101BE00060E081E20E949B0264EF71E080E090E09F
:101BF0000E941F0361E08EE10E949B0260E08FE182
:101C00000E949B0260E080E20E949B0260E081E211
:101C10000E949B0264EF71E080E090E00E941F034D
:101C200060E08EE10E949B0260E08FE10E949B02D7
:101C300060E080E20E949B0260E081E20E949B02E1
:101C400064EF71E080E090E00E941F0360E084E3B5
:101C50000E949B0210933F0200933E02C0913E02FD
:101C6000D0913F02D7FD0FC0CE010E9462016FE00C
:101C700070E080E090E00E941F032197D0933F0224
:101C8000C0933E02EBCF6CE271E080E090E00E94F6
:101C90001F0360E085E30E949B0264E670E080E041
:101CA00090E00E941F0361E085E30E949B0264E6CE
:101CB00070E080E090E00E941F03809140029091CC
:101CC000410284319105FCF461E086E00E945005F8
:101CD00045E050E06CE072E085ED92E00E94DE01AC
:101CE00062E080E00E9450054BE050E062E172E06B
:101CF00085ED92E00E94DE01E114F10409F4B0C91F
:101D00000E940000ADC94497B9F761E086E00E94E7
:101D1000500545E050E06EE172E085ED92E00E94F2
:101D2000DE0162E080E00E9450054BE050E064E29A
:101D300072E0DECFCF931092D8021092D70284E0E7
:101D400092E09093D6028093D5028CE08093D902E2
:101D5000CFEFC093DA028BE08093DB0285E08093C3
:101D6000DC0284E08093DD0283E08093DE0282E087
:101D70008093DF021092E0021092E1021092E202E0
:101D80001092E3021092E40261E080E10E94AB0451
:101D9000809130028033A0F491E0980F909330024C
:101DA0008093D20290E0FC01EE0FFF1FE80FF91FB5
:101DB000EE5BFD4F88EB9BE092838183CF9108958A
:101DC000C093D202FBCF052E97FB1EF400940E9415
:101DD000FA0E57FD07D00E94150F07FC03D04EF4F2
:101DE0000C94FA0E50954095309521953F4F4F4FEA
:101DF0005F4F089590958095709561957F4F8F4FB7
:101E00009F4F08950E94370FA59F900DB49F900D8E
:101E1000A49F800D911D11240895B7FF0C94020F0B
:101E20000E94020F821B930B0895A1E21A2EAA1B97
:101E3000BB1BFD010DC0AA1FBB1FEE1FFF1FA2177A
:101E4000B307E407F50720F0A21BB30BE40BF50B77
:101E5000661F771F881F991F1A9469F76095709500
:101E6000809590959B01AC01BD01CF010895A29F83
:101E7000B001B39FC001A39F700D811D1124911D5E
:101E8000B29F700D811D1124911D0895991B79E059
:101E900004C0991F961708F0961B881F7A95C9F7FA
:101EA00080950895EE0FFF1F881F8BBF0790F69156
:081EB000E02D1994F894FFCF16
:101EB800000000005F05DE010C040B045641474199
:101EC8005300444953504F4E49564549530020202A
:101ED80020202000204C4F5441444F202020200037
:00000001FF
