:100000000C9461000C9473000C9473000C947300B6
:100010000C9473000C9473000C9473000C94730094
:100020000C9473000C9473000C9473000C94730084
:100030000C9473000C9473000C9473000C94730074
:100040000C9426010C9473000C9473000C947300B0
:100050000C9473000C9473000C9473000C94730054
:100060000C9473000C94730000000000240027001F
:100070002A0000000000250028002B0000000000DE
:1000800023002600290004040404040404040202DA
:100090000202020203030303030301020408102007
:1000A0004080010204081020010204081020000012
:1000B0000008000201000003040700000000000027
:1000C000000011241FBECFEFD8E0DEBFCDBF21E07E
:1000D000A0E0B1E001C01D92A930B207E1F70E9493
:1000E00070010C941E050C940000833081F028F4FC
:1000F000813099F08230A9F008958730A9F08830D6
:10010000C9F08430B1F4809180008F7D03C080916C
:1001100080008F7780938000089584B58F7784BDA9
:10012000089584B58F7DFBCF8091B0008F77809349
:10013000B00008958091B0008F7DF9CFCF93DF9309
:10014000282F30E0F901E255FF4F8491F901E6567E
:10015000FF4FD491F901EA57FF4FC491CC23A1F08E
:1001600081110E947500EC2FF0E0EE0FFF1FE458A4
:10017000FF4FA591B491EC91ED2381E090E009F45B
:1001800080E0DF91CF91089580E090E0FACF1F9357
:10019000CF93DF93282F30E0F901E255FF4F849190
:1001A000F901E656FF4FD491F901EA57FF4FC49188
:1001B000CC23A9F0162F81110E947500EC2FF0E0DE
:1001C000EE0FFF1FEE58FF4FA591B4918FB7F89433
:1001D000EC91111108C0D095DE23DC938FBFDF9125
:1001E000CF911F910895DE2BF8CFCF93DF9390E04E
:1001F000FC01E656FF4F24918A579F4FFC018491E2
:100200008823D1F090E0880F991FFC01E859FF4F37
:10021000A591B491FC01EE58FF4FC591D4916111A5
:100220000EC09FB7F8948C91E22FE0958E238C93AB
:100230002881E223E8839FBFDF91CF9108958FB794
:10024000F894EC91E22BEC938FBFF6CF1F920F92B4
:100250000FB60F9211242F933F938F939F93AF93D9
:10026000BF938091050190910601A0910701B09183
:1002700008013091040123E0230F2D3758F5019632
:10028000A11DB11D209304018093050190930601E7
:10029000A0930701B09308018091000190910101A2
:1002A000A0910201B09103010196A11DB11D80939F
:1002B000000190930101A0930201B0930301BF914B
:1002C000AF919F918F913F912F910F900FBE0F9003
:1002D0001F90189526E8230F0296A11DB11DD2CFBD
:1002E000789484B5826084BD84B5816084BD85B511
:1002F000826085BD85B5816085BD80916E0081601D
:1003000080936E00109281008091810082608093C2
:1003100081008091810081608093810080918000C4
:100320008160809380008091B10084608093B100EF
:100330008091B00081608093B00080917A008460E9
:1003400080937A0080917A00826080937A00809115
:100350007A00816080937A0080917A00806880932F
:100360007A001092C10060E08DE00E94F50060E02C
:100370008CE00E94F50061E087E00E94F50061E0FA
:1003800088E00E94F50061E089E00E94F50061E0EC
:100390008BE00E94F50061E08DE00E94C70061E003
:1003A0008CE00E94C70060E087E00E94C70060E028
:1003B00088E00E94C70060E089E00E94C70060E01A
:1003C0008BE00E94C70060E086E00E94C70060E00A
:1003D00085E00E94C70060E084E00E94C70060E002
:1003E00083E00E94C70010E4C0E0D0E010937C00DE
:1003F00080917A00806480937A0080917A0086FDF3
:10040000FCCF8091780060917900762F682F072EBD
:10041000000C880B990B0E94FC0320E030E040EABE
:1004200050E40E94B10420E030EC4FE754E40E9415
:1004300088032AE037ED43E25CE30E94880320E072
:1004400030E048E452E40E9416036B017C018CE02A
:100450000E949E00892B01F560E087E00E94C700A2
:1004600060E088E00E94C70060E089E00E94C70069
:1004700060E08BE00E94C70060E086E00E94C70059
:1004800060E085E00E94C70060E084E00E94C70051
:1004900060E083E00E94C7008DE00E949E00892BEF
:1004A000D9F48CE00E949E00892B41F061E087E046
:1004B0000E94C70061E088E00E94C70088E00E94B7
:1004C0009E00019749F48CE00E949E00892B21F048
:1004D00061E089E00E94C70020E030E048EC51E490
:1004E000C701B6010E94830387FF0CC08CE00E9405
:1004F0009E0060E0892B01F5209709F477CF0E94D8
:10050000000074CF20E030E048EC51E4C701B601B0
:100510000E94AC04181624F520E030E048E452E4D0
:10052000C701B6010E94830387FF1AC08CE00E94B6
:100530009E00892B09F361E086E00E94C70060E01D
:1005400085E00E94C70060E084E00E94C70060E090
:1005500083E00E94C70060E08BE00E94C700CCCF20
:1005600020E030E048E452E4C701B6010E94AC0448
:1005700087FD16C020E030E046E952E4C701B6012D
:100580000E94830387FF0CC08CE00E949E00892B91
:1005900009F4B2CF60E086E00E94C70061E0D0CFEE
:1005A00020E030E046E952E4C701B6010E94AC0405
:1005B00087FD1AC020E030E048EC52E4C701B601E4
:1005C0000E94830387FF10C08CE00E949E00892B4D
:1005D00009F492CF60E086E00E94C70060E085E009
:1005E0000E94C70061E0B0CF20E030E048EC52E468
:1005F000C701B6010E94AC0487FD7ECF8CE00E944B
:100600009E00892B09F478CF60E086E00E94C70045
:1006100060E085E00E94C70060E084E00E94C700BF
:1006200061E083E00E94C70061E096CF5058BB278D
:10063000AA270E942E030C9472040E94640438F0CE
:100640000E946B0420F039F49F3F19F426F40C94B7
:1006500061040EF4E095E7FB0C945B04E92F0E9423
:10066000830458F3BA17620773078407950720F0CD
:1006700079F4A6F50C94A5040EF4E0950B2EBA2F90
:10068000A02D0B01B90190010C01CA01A001112498
:10069000FF27591B99F0593F50F4503E68F11A1644
:1006A000F040A22F232F342F4427585FF3CF4695D5
:1006B00037952795A795F0405395C9F77EF41F16F7
:1006C000BA0B620B730B840BBAF09150A1F0FF0FC1
:1006D000BB1F661F771F881FC2F70EC0BA0F621FAD
:1006E000731F841F48F4879577956795B795F7959D
:1006F0009E3F08F0B0CF9395880F08F09927EE0F32
:100700009795879508950E94370408F481E008952D
:100710000E949C030C9472040E946B0458F00E9487
:10072000640440F029F45F3F29F00C945B045111FC
:100730000C94A6040C9461040E94830468F399232A
:10074000B1F3552391F3951B550BBB27AA276217CD
:100750007307840738F09F5F5F4F220F331F441FDA
:10076000AA1FA9F335D00E2E3AF0E0E832D091500E
:100770005040E695001CCAF72BD0FE2F29D0660FFB
:10078000771F881FBB1F261737074807AB07B0E83E
:1007900009F0BB0B802DBF01FF2793585F4F3AF044
:1007A0009E3F510578F00C945B040C94A6045F3FC7
:1007B000E4F3983ED4F3869577956795B795F795CA
:1007C0009F5FC9F7880F911D9695879597F90895B2
:1007D000E1E0660F771F881FBB1F6217730784074E
:1007E000BA0720F0621B730B840BBA0BEE1F88F75D
:1007F000E0950895E89409C097FB3EF490958095A4
:10080000709561957F4F8F4F9F4F9923A9F0F92FD6
:1008100096E9BB279395F695879577956795B79554
:10082000F111F8CFFAF4BB0F11F460FF1BC06F5F3A
:100830007F4F8F4F9F4F16C0882311F096E911C04C
:10084000772321F09EE8872F762F05C0662371F06D
:1008500096E8862F70E060E02AF09A95660F771F81
:10086000881FDAF7880F9695879597F90895990F5D
:100870000008550FAA0BE0E8FEEF16161706E8076A
:10088000F907C0F012161306E407F50798F0621B8B
:10089000730B840B950B39F40A2661F0232B242B60
:1008A000252B21F408950A2609F4A140A6958FEF7F
:1008B000811D811D089597F99F6780E870E060E0D1
:1008C00008959FEF80EC089500240A9416161706E9
:1008D00018060906089500240A9412161306140631
:1008E00005060895092E0394000C11F4882352F094
:1008F000BB0F40F4BF2B11F460FF04C06F5F7F4F4C
:100900008F4F9F4F089557FD9058440F551F59F032
:100910005F3F71F04795880F97FB991F61F09F3FEC
:1009200079F087950895121613061406551FF2CF15
:100930004695F1DF08C0161617061806991FF1CF65
:1009400086957105610508940895E894BB2766278C
:100950007727CB0197F908950E94370408F48FEFA9
:1009600008950E94C4040C9472040E94640438F038
:100970000E946B0420F0952311F00C945B040C94FE
:10098000610411240C94A6040E94830470F3959FC3
:10099000C1F3950F50E0551F629FF001729FBB2776
:1009A000F00DB11D639FAA27F00DB11DAA1F649F12
:1009B0006627B00DA11D661F829F2227B00DA11DC5
:1009C000621F739FB00DA11D621F839FA00D611D4B
:1009D000221F749F3327A00D611D231F849F600D6C
:1009E000211D822F762F6A2F11249F5750409AF095
:1009F000F1F088234AF0EE0FFF1FBB1F661F771F21
:100A0000881F91505040A9F79E3F510580F00C94EB
:100A10005B040C94A6045F3FE4F3983ED4F3869500
:100A200077956795B795F795E7959F5FC1F7FE2B8B
:100A3000880F911D9695879597F90895F894FFCFA3
:00000001FF
