:020000040000FA
:100000000C9422010C9453010C9453010C94530151
:100010000C9453010C9453010C9453010C94530110
:100020000C9453010C9453010C9453010C94530100
:100030000C9453010C9453010C9453010C945301F0
:100040000C9453010C9453010C9453010C945301E0
:100050000C9453010C9453010C9453010C94C80458
:100060000C9453010C9453010C9453010C945301C0
:100070000C9453010C9453010C9453010C945301B0
:100080000C9453010C9453010C9453010C945301A0
:100090000C9453010C9453010C9453010C94530190
:1000A0000C9453010C9453010C9453010C94530180
:1000B0000C9453010C9453010C9453010C94530170
:1000C0000C9453010C9453010C9453010C94530160
:1000D0000C9453010C9453010C9453010C94530150
:1000E0000C9453010C94F4010C9427020C941D02FF
:1000F0000C94EC010C94FD010C9447020C94E80163
:100100000C9415020C940B020C94D6010C94010271
:100110000C9423020C94F7010C94D1010C94EA0383
:100120000C9407020C9419020C940F020C944802D0
:100130000C94F0010C9437080C94740100000A0B25
:1001400002090C0D0E080703040100000000000066
:10015000000000000000000000000000000000009F
:10016000000000000000000012111000000000005C
:10017000000000000000000000000000000000007F
:10018000000000002200250028002B002E00310076
:10019000340002010000050108010B0100002100EC
:1001A000240027002A002D00300033000101000048
:1001B000040107010A0105050505070508080808E7
:1001C000020202020A0A08080404040401010101EF
:1001D00001010101030303030303030304070707EA
:1001E0000C0C0C0C0C0C0C0C02020202060606068F
:1001F000060606060B0B0B0B0B0B0B0B010210205C
:10020000200808102040102040800201020108044C
:1002100002010102040810204080804020100804E0
:100220000201800402018040201008040201080439
:10023000020101020408102040800102040810207D
:100240004080370811241FBECFEFD1E2DEBFCDBF03
:1002500000E00CBF12E0A0E0B2E0E2E5F7E100E070
:100260000BBF02C007900D92A037B107D9F722E06B
:10027000A0E7B2E001C01D92A139B207E1F711E099
:10028000C2E2D1E000E006C021970109802FFE0103
:100290000E949F0BC132D10780E00807A9F70E9496
:1002A00012050C94A70B0C94000090E0FC01E450A4
:1002B000FE4F24918A549E4FFC018491882399F02B
:1002C00090E0880F991FFC01E456FE4FA591B49170
:1002D000FC01EE57FE4F859194918FB7F894EC9105
:1002E000E22BEC938FBF0895AF92BF92CF92DF9233
:1002F000EF92FF920F931F93CF93DF936C017B01DB
:100300008B01040F151FEB015E01AE18BF08C0176B
:10031000D10759F06991D601ED91FC910190F081DE
:10032000E02DC6011995892B79F7C501DF91CF9191
:100330001F910F91FF90EF90DF90CF90BF90AF9003
:100340000895282F30E0F901E45CFE4F9491F90103
:10035000E450FE4F44912A543E4FF9012491222348
:1003600009F435C0992311F191509231F8F4E92F35
:10037000F0E08827E154FE4F8F4F0C949F0BF00163
:10038000F401D101E801EC01D601F701FD01010200
:1003900007020B020F0215021902D6011D022302E9
:1003A0002702809180008F7780938000E22FF0E019
:1003B000EE0FFF1FEE57FE4FA591B4918FB7F89443
:1003C000EC91611148C040954E234C938FBF089526
:1003D000809180008F7DE8CF80918000877FE4CF7F
:1003E00084B58F7784BDE2CF84B58F7DFBCF8091BC
:1003F000B0008F778093B000D9CF8091B0008F7D0F
:10040000F9CF809190008F7780939000CFCF80912B
:1004100090008F7DF9CF80919000877FF5CF8091FC
:10042000A0008F778093A000C1CF8091A0008F7D26
:10043000F9CF8091A000877FF5CF809120018F7741
:1004400080932001B3CF809120018F7DF9CF8091DF
:100450002001877FF5CF4E2BB8CF863309F480E09B
:1004600090917B00977F90937B008770806480934E
:100470007C0080917A00806480937A0080917A0079
:1004800086FDFCCF809178009091790008950895C1
:1004900090E080E00895FC0101900020E9F7319799
:1004A000AF01481B590BBC0189E792E00C94740121
:1004B0008F929F92AF92BF920F931F93CF93DF9330
:1004C000CDB7DEB7A1970FB6F894DEBF0FBECDBF94
:1004D00019A2423008F44AE08E010F5D1F4F842EAE
:1004E000912CB12CA12CA50194010E942B09E62F7F
:1004F000B901CA01EA30F4F4E05DD801EE938D0150
:10050000232B242B252B79F790E080E0109719F00E
:10051000CD010E944B02A1960FB6F894DEBF0FBE2C
:10052000CDBFDF91CF911F910F91BF90AF909F9062
:100530008F900895E95CE1CF0C944B02CF93DF9349
:10054000EC0160E08E810E94A10161E08E810E9439
:10055000A10160E08E810E94A1018BE891E00197EA
:10056000F1F7DF91CF910895CF92DF92EF92FF9252
:100570000F931F93CF93DF936C017C0187E0E80E0C
:10058000F11CD0E0C0E0062F10E0B8010C2E02C034
:10059000759567950A94E2F76170F70181917F0183
:1005A0000E94A1012196C430D10579F7C601DF91DF
:1005B000CF911F910F91FF90EF90DF90CF900C940F
:1005C0009E02CF92DF92EF92FF920F931F93CF93F1
:1005D000DF93EC01F62E642F8C810E94A1018D81A6
:1005E0008F3F19F060E00E94A1010F2D10E08F8570
:1005F00084FF25C06E0187E0C80ED11CF12CE12CD0
:10060000B8010E2C02C0759567950A94E2F76170E7
:10061000F60181916F010E94A101FFEFEF1AFF0A1D
:1006200088E0E816F10461F7CE01DF91CF911F91C8
:100630000F91FF90EF90DF90CF900C949E02B80145
:1006400084E0759567958A95E1F7CE010E94B40222
:100650006F2DCE01DF91CF911F910F91FF90EF9001
:10066000DF90CF900C94B40240E0682F89E792E0CD
:100670000C94E102CF93DF93813029F090918802AE
:1006800098609093880280938C0210928D0280E48F
:1006900080938E0280E180938F0280E580939002A8
:1006A00080917D020E94550180917E028F3F11F062
:1006B0000E94550180917F020E945501C9E7D2E056
:1006C0009E01295732408091880284FD0AC084E04F
:1006D00090E02196281739073CF48E810E9455013D
:1006E000EFCF88E090E0F5CF8BE39DE00197F1F745
:1006F00060E080917D020E94A10160E080917F0214
:100700000E94A10180917E028F3F19F060E00E945B
:10071000A1018091880284FD39C063E089E792E0FD
:100720000E94B402CBE4D6E4CE010197F1F763E076
:1007300089E792E00E94B4022197F1F763E089E72C
:1007400092E00E94B40283E592E00197F1F762E043
:1007500089E792E00E94B4028091880280620E9440
:10076000340384E0809389028CE00E94340381E0AA
:100770000E9434038BE39FE10197F1F782E08093BD
:100780008A0286E0DF91CF910C94340380620E944C
:1007900034038BE496E40197F1F78091880280623C
:1007A0000E94340383E592E00197F1F7809188027B
:1007B00080620E943403D0CF90918C02891710F090
:1007C0008FEF890FE82FF0E0E758FD4F84898068AC
:1007D0000C94340341E00E94E10281E090E008952E
:1007E0004F925F926F927F928F929F92AF92BF9241
:1007F000CF92DF92EF92FF92CF93DF936B017C0158
:10080000AC019B010E949A0B882391F080E192E059
:10081000DF91CF91FF90EF90DF90CF90BF90AF909E
:100820009F908F907F906F905F904F900C944B02B1
:1008300046015701E894B7F82FEF3FEF4FE75FE726
:10084000C501B4010E949A0B81110DC02FEF3FEF3B
:100850004FE75FE7C501B4010E94C90918161CF4EF
:1008600084E192E0D5CF2FEF3FEF4FE75FE4C70180
:10087000B6010E94280B18161CF488E192E0C8CF3C
:100880002FEF3FEF4FE75FECC701B6010E94C909A8
:1008900087FDF3CF20E030E0A901C701B6010E9437
:1008A000C909D0E0C0E087FF0CC041E06DE289E7F4
:1008B00092E00E94E102F7FAF094F7F8F094C1E0B8
:1008C000D0E02AE037ED43EA5BE3C701B6010E94BE
:1008D0005D094B015C010E94470A6B017C010E948B
:1008E000760A9B01AC01C501B4010E945C094B0171
:1008F0005C014AE0C701B6010E9458027C01EC0E7F
:10090000FD1E41E06EE289E792E00E94E1028FEF76
:10091000E81AF80A20E030E040E251E4C501B401F1
:100920000E942D0B2B013C010E94470A4B01B12C68
:10093000A12C4AE0C501B4010E945802E80EF91E3C
:10094000C501B4010E94760A9B01AC01C301B2014A
:100950000E945C0920E030E040E251E40E942D0B4F
:100960000E94470A90E080E04AE00E9458028E0D03
:100970009F1DDF91CF91FF90EF90DF90CF90BF90C0
:10098000AF909F908F907F906F905F904F90089561
:100990001F920F920FB60F9211242F933F938F93B4
:1009A0009F93AF93BF938091750290917602A0912F
:1009B0007702B09178023091740223E0230F2D3733
:1009C00058F50196A11DB11D209374028093750204
:1009D00090937602A0937702B09378028091700290
:1009E00090917102A0917202B09173020196A11DC3
:1009F000B11D8093700290937102A0937202B09324
:100A00007302BF91AF919F918F913F912F910F9062
:100A10000FBE0F901F90189526E8230F0296A11D78
:100A2000B11DD2CF789484B5826084BD84B58160D5
:100A300084BD85B5826085BD85B5816085BD8091A9
:100A40006E00816080936E00109281008091810021
:100A50008260809381008091810081608093810019
:100A6000809180008160809380008091B1008460DB
:100A70008093B1008091B00081608093B00080913C
:100A800091008260809391008091910081608093B9
:100A90009100809190008160809390008091A100EE
:100AA00082608093A1008091A10081608093A10069
:100AB0008091A00081608093A000809121018260DC
:100AC0008093210180912101816080932101809197
:100AD000200181608093200180917A00846080935E
:100AE0007A0080917A00826080937A0080917A0007
:100AF000816080937A0080917A00806880937A0088
:100B00001092C10081E00E942D02BC01990F880B58
:100B1000990B611571058105910511F00E94F0088E
:100B200087E10E94550189E10E9455018BE10E94F5
:100B300055018DE10E9455018FE10E94550181E22E
:100B40000E94550183E20E94550185E20E945501F1
:100B500087E20E94550189E20E9455018BE20E94C2
:100B600055018DE20E94550160E087E10E94A101DC
:100B700060E089E10E94A10160E08BE10E94A10197
:100B800060E08DE10E94A10160E08FE10E94A1017F
:100B900060E081E20E94A10160E083E20E94A10185
:100BA00060E085E20E94A10160E087E20E94A1016D
:100BB00060E089E20E94A10160E08BE20E94A10155
:100BC00060E08DE20E94A10184E00E943A03C0E04F
:100BD000D0E086E30E942D02BC01990F880B990B8F
:100BE0000E94780A20E030E040EA50E40E942D0B99
:100BF00020E030EC4FE754E40E94CE092AE037EDC4
:100C000043E25CE30E94CE090E94400A072E000CDA
:100C1000880B990B0E94780A6B017C0180E00E948E
:100C2000DC038CE192E00E949C0282E00E94DC03E3
:100C3000C701B6010E94F00320E030E040EA51E431
:100C4000C701B6010E94C909811116C00E94DC03C8
:100C500061E08DE20E94A10182E292E00E949C028A
:100C600082E00E94DC0360E070E080EA91E40E9490
:100C7000F00384E692E0C0C020E030E040EA51E4B6
:100C8000C701B6010E94C90987FF0CC080E00E941D
:100C9000DC038EE292E00E949C0260E08DE20E9402
:100CA000A101ACC020E030E048EC51E4C701B6013E
:100CB0000E94C909811112C00E94DC0361E08BE22D
:100CC0000E94A10182E292E00E949C0282E00E94C6
:100CD000DC0360E070E088EC91E4C9CF20E030E014
:100CE00048EC51E4C701B6010E94C90987FF03C05F
:100CF00060E08BE2D4CF20E030E040EF51E4C70168
:100D0000B6010E94C909811112C00E94DC0361E092
:100D100089E20E94A10182E292E00E949C0282E0AC
:100D20000E94DC0360E070E080EF91E4A0CF20E05F
:100D300030E040EF51E4C701B6010E94C90987FFC6
:100D400003C060E089E2ABCF20E030E04CE052E449
:100D5000C701B6010E94C909811112C00E94DC03BB
:100D600061E087E20E94A10182E292E00E949C027F
:100D700082E00E94DC0360E070E08CE092E477CFD8
:100D800020E030E04CE052E4C701B6010E94C909FE
:100D900087FF03C060E087E282CF20E030E040E2DE
:100DA00052E4C701B6010E94C909811112C00E9414
:100DB000DC0361E085E20E94A1018AE392E00E94E7
:100DC0009C0282E00E94DC0360E070E080E292E43A
:100DD0004ECF20E030E040E252E4C701B6010E946D
:100DE000C90987FF11C080E00E94DC0360E085E252
:100DF0000E94A10182E292E00E949C02209709F4E5
:100E0000E8CE0E940000E5CE20E030E044E352E46A
:100E1000C701B6010E94C909811112C00E94DC03FA
:100E200061E083E20E94A1018AE392E00E949C02B9
:100E300082E00E94DC0360E070E084E392E417CF7C
:100E400020E030E044E352E4C701B6010E94C90942
:100E500087FF03C060E083E222CF20E030E048E477
:100E600052E4C701B6010E94C909811112C00E9453
:100E7000DC0361E081E20E94A1018AE392E00E942A
:100E80009C0282E00E94DC0360E070E088E492E46F
:100E9000EECE20E030E048E452E4C701B6010E9403
:100EA000C90987FF03C060E081E2F9CE20E030E0AD
:100EB0004CE552E4C701B6010E94C909811112C074
:100EC0000E94DC0361E08FE10E94A1018AE392E0CD
:100ED0000E949C0282E00E94DC0360E070E08CE5EE
:100EE00092E4C5CE20E030E04CE552E4C701B60103
:100EF0000E94C90987FF03C060E08FE1D0CE20E0E7
:100F000030E040E752E4C701B6010E94C9098111EF
:100F100019C00E94DC0361E08DE10E94A10186E41A
:100F200092E00E949C0282E00E94DC0360E070E09C
:100F300080E792E40E94F00383E00E94DC0382E5F4
:100F400092E05ACF20E030E040E752E4C701B6011A
:100F50000E94C90987FF11C080E00E94DC0360E0A5
:100F60008DE10E94A1018AE392E00E949C0283E04D
:100F70000E94DC0381E692E03FCF20E030E042E8CF
:100F800052E4C701B6010E94C909811112C00E9432
:100F9000DC0361E08BE10E94A10186E492E00E9403
:100FA0009C0282E00E94DC0360E070E082E892E450
:100FB0005ECE20E030E042E852E4C701B6010E9474
:100FC000C90987FF03C060E08BE169CE20E030E013
:100FD0004CE852E4C701B6010E94C909811112C050
:100FE0000E94DC0361E089E10E94A10186E492E0B5
:100FF0000E949C0282E00E94DC0360E070E08CE8CA
:1010000092E435CE20E030E04CE852E4C701B6016E
:101010000E94C90987FF03C060E089E140CE20E05B
:1010200030E046E952E4C701B6010E94280B87FD73
:1010300011C080E00E94DC0361E087E10E94A10111
:1010400086E492E00E949C0282E00E94DC03C701D9
:10105000B6010DCE20E030E046E952E4C701B6010A
:101060000E94C90987FFCACE60E087E118CEE9E790
:10107000F2E01382128288E092E0918380838CE018
:1010800084838FEF85838BE0868385E0878384E08C
:10109000808783E0818782E08287138614861586A5
:1010A0001686178681E00C943A038F929F92AF9236
:1010B000BF92CF92DF92EF92FF92CF93DF93EC013A
:1010C000688179818A819B8161157105810591050E
:1010D00021F464E279ED8BE597E02DE133EF41E017
:1010E00050E00E94F90849015A019B01AC01A7EAAE
:1010F000B1E40E9418096B017C01ACEEB4EFA501CC
:1011000094010E942609C60ED71EE81EF91EF7FE9E
:1011100006C081E0C81AD108E10880E8F80AC88250
:10112000D982EA82FB82C701B6019F77DF91CF9116
:10113000FF90EF90DF90CF90BF90AF909F908F90F7
:1011400008958F929F92AF92BF92CF92DF92EF92CB
:10115000FF926091000270910102809102029091D1
:101160000302611571058105910521F464E279EDB1
:101170008BE597E02DE133EF41E050E00E94F90864
:1011800049015A019B01AC01A7EAB1E40E94180988
:101190006B017C01ACEEB4EFA50194010E9426091D
:1011A000C60ED71EE81EF91EF7FE06C081E0C81A5B
:1011B000D108E10880E8F80AC0920002D09201024A
:1011C000E0920202F0920302C701B6019F77FF90FE
:1011D000EF90DF90CF90BF90AF909F908F90089549
:1011E00060930002709301028093020290930302C5
:1011F0000895052E97FB1EF400940E94100957FDD8
:1012000007D00E942B0907FC03D04EF40C94100960
:1012100050954095309521953F4F4F4F5F4F089522
:1012200090958095709561957F4F8F4F9F4F089552
:101230000E944D09A59F900DB49F900DA49F800D15
:10124000911D11240895B7FF0C9418090E941809E4
:10125000821B930B0895A1E21A2EAA1BBB1BFD0152
:101260000DC0AA1FBB1FEE1FFF1FA217B307E40785
:10127000F50720F0A21BB30BE40BF50B661F771FDD
:10128000881F991F1A9469F76095709580959095BD
:101290009B01AC01BD01CF010895A29FB001B39F96
:1012A000C001A39F700D811D1124911DB29F700D6F
:1012B000811D1124911D08955058BB27AA270E9413
:1012C00074090C94EE0A0E94E00A38F00E94E70AC2
:1012D00020F039F49F3F19F426F40C94DD0A0EF443
:1012E000E095E7FB0C94D70AE92F0E94FF0A58F318
:1012F000BA17620773078407950720F079F4A6F5FB
:101300000C94210B0EF4E0950B2EBA2FA02D0B019F
:10131000B90190010C01CA01A0011124FF27591B3A
:1013200099F0593F50F4503E68F11A16F040A22F40
:10133000232F342F4427585FF3CF469537952795B1
:10134000A795F0405395C9F77EF41F16BA0B620BB0
:10135000730B840BBAF09150A1F0FF0FBB1F661FF7
:10136000771F881FC2F70EC0BA0F621F731F841F3A
:1013700048F4879577956795B795F7959E3F08F060
:10138000B0CF9395880F08F09927EE0F9795879522
:1013900008950E94B30A08F481E008950E94E209CA
:1013A0000C94EE0A0E94E70A58F00E94E00A40F00E
:1013B00029F45F3F29F00C94D70A51110C94220BA9
:1013C0000C94DD0A0E94FF0A68F39923B1F35523B8
:1013D00091F3951B550BBB27AA2762177307840748
:1013E00038F09F5F5F4F220F331F441FAA1FA9F3DE
:1013F00035D00E2E3AF0E0E832D091505040E695CC
:10140000001CCAF72BD0FE2F29D0660F771F881F2C
:10141000BB1F261737074807AB07B0E809F0BB0B1F
:10142000802DBF01FF2793585F4F3AF09E3F510533
:1014300078F00C94D70A0C94220B5F3FE4F3983EAB
:10144000D4F3869577956795B795F7959F5FC9F71C
:10145000880F911D9695879597F90895E1E0660F9D
:10146000771F881FBB1F621773078407BA0720F016
:10147000621B730B840BBA0BEE1F88F7E09508957F
:101480000E94470A6894B1110C94220B08950E949F
:10149000070B88F09F5798F0B92F9927B751B0F0F4
:1014A000E1F0660F771F881F991F1AF0BA95C9F7E8
:1014B00014C0B13091F00E94210BB1E008950C945A
:1014C000210B672F782F8827B85F39F0B93FCCF30D
:1014D000869577956795B395D9F73EF49095809565
:1014E000709561957F4F8F4F9F4F0895E89409C085
:1014F00097FB3EF490958095709561957F4F8F4F47
:101500009F4F9923A9F0F92F96E9BB279395F6955C
:10151000879577956795B795F111F8CFFAF4BB0FDA
:1015200011F460FF1BC06F5F7F4F8F4F9F4F16C03E
:10153000882311F096E911C0772321F09EE8872FC8
:10154000762F05C0662371F096E8862F70E060E084
:101550002AF09A95660F771F881FDAF7880F9695FD
:10156000879597F90895990F0008550FAA0BE0E8A1
:10157000FEEF16161706E807F907C0F01216130655
:10158000E407F50798F0621B730B840B950B39F495
:101590000A2661F0232B242B252B21F408950A26FB
:1015A00009F4A140A6958FEF811D811D089597F93B
:1015B0009F6780E870E060E008959FEF80EC0895F9
:1015C00000240A9416161706180609060895002422
:1015D0000A9412161306140605060895092E03949C
:1015E000000C11F4882352F0BB0F40F4BF2B11F410
:1015F00060FF04C06F5F7F4F8F4F9F4F089557FD6F
:101600009058440F551F59F05F3F71F04795880F70
:1016100097FB991F61F09F3F79F087950895121607
:1016200013061406551FF2CF4695F1DF08C01616B3
:1016300017061806991FF1CF869571056105089464
:101640000895E894BB2766277727CB0197F908957B
:101650000E94B30A08F48FEF08950E94400B0C9487
:10166000EE0A0E94E00A38F00E94E70A20F0952373
:1016700011F00C94D70A0C94DD0A11240C94220B5F
:101680000E94FF0A70F3959FC1F3950F50E0551F1C
:10169000629FF001729FBB27F00DB11D639FAA27C7
:1016A000F00DB11DAA1F649F6627B00DA11D661F16
:1016B000829F2227B00DA11D621F739FB00DA11D37
:1016C000621F839FA00D611D221F749F3327A00DF1
:1016D000611D231F849F600D211D822F762F6A2F8D
:1016E00011249F5750409AF0F1F088234AF0EE0FF2
:1016F000FF1FBB1F661F771F881F91505040A9F71F
:101700009E3F510580F00C94D70A0C94220B5F3F4A
:10171000E4F3983ED4F3869577956795B795F7955A
:10172000E7959F5FC1F7FE2B880F911D96958795D2
:1017300097F908950E94B30A880B990B0895EE0F4C
:10174000FF1F881F8BBF0790F691E02D1994F89426
:10175000FFCF0100000000000000EA03740148020E
:1017600047026E616E00696E66006F7666005465B2
:101770006D702E0054656D702E2042616978610095
:1017800054656D702E2020202020200054656D703F
:101790002E204D656469610054656D702E20416C8A
:1017A000746120005369742E20646520416C61725D
:1017B0006D650020202020202020202020202020B7
:0217C000200007
:10E000000D9489F10D94B2F10D94B2F10D94B2F129
:10E010000D94B2F10D94B2F10D94B2F10D94B2F1F0
:10E020000D94B2F10D94B2F10D94B2F10D94B2F1E0
:10E030000D94B2F10D94B2F10D94B2F10D94B2F1D0
:10E040000D94B2F10D94B2F10D94B2F10D94B2F1C0
:10E050000D94B2F10D94B2F10D94B2F10D94B2F1B0
:10E060000D94B2F10D94B2F10D94B2F10D94B2F1A0
:10E070000D94B2F10D94B2F10D94B2F10D94B2F190
:10E080000D94B2F10D94B2F10D94B2F10D94B2F180
:10E090000D94B2F10D94B2F10D94B2F10D94B2F170
:10E0A0000D94B2F10D94B2F10D94B2F10D94B2F160
:10E0B0000D94B2F10D94B2F10D94B2F10D94B2F150
:10E0C0000D94B2F10D94B2F10D94B2F10D94B2F140
:10E0D0000D94B2F10D94B2F10D94B2F10D94B2F130
:10E0E0000D94B2F141546D656761323536300041AF
:10E0F000726475696E6F206578706C6F72657220DE
:10E1000073746B3530305632206279204D4C530099
:10E11000426F6F746C6F616465723E004875683F52
:10E1200000436F6D70696C6564206F6E203D200048
:10E130004350552054797065202020203D20005FF9
:10E140005F4156525F415243485F5F3D2000415658
:10E1500052204C696243205665723D20004743437C
:10E160002056657273696F6E203D20004350552024
:10E1700049442020202020203D20004C6F7720663D
:10E18000757365202020203D20004869676820665F
:10E190007573652020203D200045787420667573D6
:10E1A00065202020203D20004C6F636B2066757336
:10E1B000652020203D20004D617220203720323024
:10E1C000313300312E362E3800342E332E350056A2
:10E1D00023202020414444522020206F7020636F70
:10E1E00064652020202020696E73747275637469E1
:10E1F0006F6E2061646472202020496E74657272B3
:10E20000757074006E6F20766563746F7200726A49
:10E210006D702020006A6D70200057686174207056
:10E220006F72743A00506F7274206E6F7420737541
:10E2300070706F72746564004D7573742062652030
:10E2400061206C6574746572002000577269747483
:10E25000696E672045450052656164696E672045B7
:10E26000450045452065727220636E743D00504F35
:10E27000525400303D5A65726F2061646472003FF1
:10E280003D43505520737461747300403D454550C3
:10E29000524F4D207465737400423D426C696E6B41
:10E2A000204C454400453D44756D70204545505215
:10E2B0004F4D00463D44756D7020464C415348001B
:10E2C000483D48656C70004C3D4C69737420492F83
:10E2D0004F20506F72747300513D51756974005234
:10E2E0003D44756D702052414D00563D73686F7707
:10E2F00020696E7465727275707420566563746FF0
:10E30000727300593D506F727420626C696E6B00BD
:10E310002A0011241FBECFEFD1E2DEBFCDBF01E046
:10E320000CBF12E0A0E0B2E0EEE1FDEF03E00BBFB6
:10E3300002C007900D92A030B107D9F712E0A0E01B
:10E34000B2E001C01D92AE30B107E1F70F9460F367
:10E350000D948DFE01E20EBF0FEF0DBF11241FBE05
:10E360000D9460F30D9400F020E030E040ED57E0B4
:10E3700005C0FA013197F1F72F5F3F4F2817390792
:10E38000C0F308959C01260F311DC901A0E0B0E043
:10E390002F5F3F4FABBFFC018791882361F08093D3
:10E3A000C6008091C00086FFFCCF8091C0008064D1
:10E3B0008093C000EACF08958DE08093C6008091DD
:10E3C000C00086FFFCCF8091C00080648093C000B5
:10E3D0008AE08093C6008091C00086FFFCCF8091C8
:10E3E000C00080648093C00008950F94C2F10F9420
:10E3F000DCF10895FC019081992359F09093C600B7
:10E400008091C00086FFFCCF8091C0008064809323
:10E41000C0003196992379F70895282F982F929567
:10E420009F70892F805D8A3308F0895F8093C600D2
:10E430008091C00086FFFCCF8091C00080648093F3
:10E44000C000822F8F70982F905D9A3308F0995FEB
:10E450009093C6008091C00086FFFCCF8091C000E1
:10E4600080648093C00008959C01FB01853691056E
:10E470001CF46330710594F0C90164E670E00F94F8
:10E480002EFE605D7F4F6093C6008091C00086FFC6
:10E49000FCCF8091C00080648093C0002B30310598
:10E4A00014F43297B4F0C90164E670E00F942EFEC4
:10E4B0006AE070E00F942EFE605D7F4F6093C600AF
:10E4C0008091C00086FFFCCF8091C0008064809363
:10E4D000C000C9016AE070E00F942EFEC0968093E0
:10E4E000C6008091C00086FFFCCF8091C000806490
:10E4F0008093C00008951F93182F8EE692EE60E07F
:10E500000F94C2F11093C6008091C00086FFFCCF2B
:10E510008091C00080648093C0000F94DCF11F9153
:10E5200008952F923F924F925F926F927F928F92B7
:10E530009F92AF92BF92CF92DF92EF92FF920F9392
:10E540001F93DF93CF93CDB7DEB762970FB6F894E2
:10E55000DEBF0FBECDBF382E622ECA01DB015C01CB
:10E560006D01772420E2222E2E010894411C511CBB
:10E570008BC081E0A81680E0B80681E0C80680E084
:10E58000D80628F0C601AA27BB270F940DF2BB2797
:10E59000AD2D9C2D8B2D0F940DF28A2D0F940DF225
:10E5A0002092C6008091C00086FFFCCF8091C00001
:10E5B00080648093C0009DE29093C6008091C0006B
:10E5C00086FFFCCF8091C00080648093C0002092C1
:10E5D000C6008091C00086FFFCCF8091C00080649F
:10E5E0008093C00019828601750188249924A1E0D6
:10E5F0003A1651F03A1620F0B2E03B1661F409C029
:10E600000BBFF701779007C0C7010F9477FE782EF4
:10E6100002C0F7017080872D0F940DF22092C60082
:10E620008091C00086FFFCCF8091C0008064809301
:10E63000C000872D8052F401EF70F0708F3520F408
:10E64000E40DF51D708204C0E40DF51D8EE280839B
:10E650000894E11CF11C011D111D0894811C911CE2
:10E6600090E18916910409F0C2CF80E190E0A0E02A
:10E67000B0E0A80EB91ECA1EDB1E198AC2010F9493
:10E68000FAF10F94DCF16A94662009F072CF629679
:10E690000FB6F894DEBF0FBECDBFCF91DF911F91B3
:10E6A0000F91FF90EF90DF90CF90BF90AF909F9031
:10E6B0008F907F906F905F904F903F902F90089534
:10E6C0002F923F924F925F926F927F928F929F9282
:10E6D000AF92BF92CF92DF92EF92FF920F931F9370
:10E6E000DF93CF93CDB7DEB7CD53D1400FB6F894BB
:10E6F000DEBF0FBECDBF01E20EBF0FEF0DBF94B75F
:10E70000F894A89514BE80916000886180936000A1
:10E7100010926000789493FF05C0E0910002F091A0
:10E7200001021995279A2F9A8091C00082608093E8
:10E73000C00080E18093C40088E18093C1000000A4
:10E74000EE24FF24870144E0A42EB12CCC24DD2448
:10E7500024C0C5010197F1F70894E11CF11C011DCB
:10E76000111D21E2E2162EE4F20620E0020720E06D
:10E77000120718F031E0C32ED12CC801B70127ECE5
:10E780003BE140E050E00F9441FE611571058105C9
:10E79000910519F485B1805885B98091C00087FD35
:10E7A00003C0C114D104A9F2A6014F5F5F4FC25E3E
:10E7B000DE4F59834883CE51D140C25EDE4F8881FF
:10E7C0009981CE51D140019711F00D9410FEC05D9A
:10E7D000DE4F19821882C053D14060E0C15DDE4F28
:10E7E0001882CF52D14088249924C35DDE4F19820C
:10E7F0001882CD52D140C05EDE4F188219821A8233
:10E800001B82C052D140CE5CDE4F188219821A8220
:10E810001B82C253D140EE24FF2487010BBFF701B6
:10E8200007911691C45CDE4F19830883CC53D14005
:10E830000D940BFEC25EDE4F28813981CE51D1404E
:10E840002130310509F52091C600C25EDE4F1982E4
:10E850001882CE51D14022C02F5F3F4F4F4F5F4FA4
:10E86000213082E138078AE7480780E0580780F0C6
:10E87000C45CDE4FE881F981CC53D140EF5FFF4F9C
:10E8800019F0EE27FF27099420E030E040E050E047
:10E890008091C00087FFE0CF2091C600C35DDE4FAE
:10E8A00048815981CD52D1404F5F5F4FC35DDE4FEC
:10E8B00059834883CD52D140213209F063C64A3092
:10E8C000510508F05FC60894811C911C53E0851621
:10E8D000910409F059C600E010E018C081E280936D
:10E8E000C6008091C00086FFFCCF8091C00080648C
:10E8F0008093C0002F5F3F4F2931310579F70F9486
:10E90000DCF10F5F1F4F0530110519F020E030E0FA
:10E91000E5CF10920A0210920B0210920C02109294
:10E920000D02109206021092070210920802109235
:10E930000902109202021092030210920402109235
:10E9400005028FEE90EE60E00F94F5F180E191EE1C
:10E9500060E00F94C2F18091C00087FFFCCF9091DE
:10E96000C600903608F09F759032B8F09093C600BC
:10E970008091C00086FFFCCF8091C00080648093AE
:10E98000C000A0E2A093C6008091C00086FFFCCF2B
:10E990008091C00080648093C000983409F4D7C18E
:10E9A0009934B8F4923409F459C1933458F490333B
:10E9B00019F1903308F4E3C59F33A1F1903409F0C5
:10E9C000DEC5BDC0953409F470C1963409F0D7C5D1
:10E9D00098C1923509F42BC2933538F49C3409F46C
:10E9E000F5C1913509F0CBC518C2963509F445C279
:10E9F000993509F0C4C567C483E792EE62E00F94CD
:10EA0000F5F110920602109207021092080210927D
:10EA1000090210920A0210920B0210920C0210923C
:10EA20000D0213C18FE792EE62E00F94F5F18FEEC5
:10EA300090EE60E00F94F5F181E291EE60E00F94CA
:10EA4000C2F187EB91EE60E00F94F5F180E391EE77
:10EA500060E00F94C2F184EE90EE60E00F94F5F167
:10EA60008FE391EE60E00F94C2F186E090E061E008
:10EA700070E00F9434F20F94DCF18DE591EE60E0DC
:10EA80000F94C2F189EC91EE60E00F94F5F18EE401
:10EA900091EE60E00F94C2F183EC91EE60E00F9490
:10EAA000F5F18CE691EE60E00F94C2F18EE10F94E7
:10EAB0000DF288E90F940DF281E00F940DF20F949E
:10EAC000DCF18BE791EE60E00F94C2F119E0E0E039
:10EAD000F0E010935700E4918E2F0F940DF20F94F5
:10EAE000DCF18AE891EE60E00F94C2F1E3E0F0E03F
:10EAF00010935700E4918E2F0F940DF20F94DCF1D8
:10EB000089E991EE60E00F94C2F1E2E0F0E0109349
:10EB10005700E4918E2F0F940DF20F94DCF188EAE8
:10EB200091EE60E00F94C2F1E1E0F0E01093570045
:10EB30001491812F0F940DF20F94DCF107CF8BE825
:10EB400092EE62E00F94F5F18BE492EE60E00F94A8
:10EB5000F5F10F94DCF100E010E019C0C8016F2D51
:10EB60000F947FFEFF2031F489E492EE60E00F9471
:10EB7000C2F10BC0F092C6008091C00086FFFCCFAE
:10EB80008091C00080648093C0000F5F1F4FC80158
:10EB900081519F41A0E0B0E0ABBFFC01F790BAE229
:10EBA000FB1621F0E2E000301E07C1F60F94DCF105
:10EBB0000F94DCF187E592EE60E00F94F5F10F948D
:10EBC000DCF1CC24DD2400E010E01EC0C8010F946D
:10EBD00077FEF82E882331F489E492EE60E00F94FA
:10EBE000C2F10BC08093C6008091C00086FFFCCFAD
:10EBF0008091C00080648093C000FE1419F00894D6
:10EC0000C11CD11C0F5F1F4FC80181519F41A0E063
:10EC1000B0E0ABBFFC01E790FAE2EF1621F022E092
:10EC20000030120799F60F94DCF10F94DCF182E6C4
:10EC300092EE60E00F94C2F1C60161E070E00F94C3
:10EC400034F20F94DCF10F94DCF110920202109276
:10EC50000302109204021092050278CE89E992EE26
:10EC600062E00F94F5F1279A2F9A16C02F9880E052
:10EC700090E0E0EDF7E03197F1F7019684369105E9
:10EC8000C1F72F9A80E090E0E0EDF7E03197F1F7DF
:10EC9000019684369105C1F78091C00087FFE6CFC9
:10ECA0008091C00087FFFCCF64C485EA92EE62E0E9
:10ECB0000F94F5F140910202509103026091040219
:10ECC0007091050281E020E10F9491F2809102029F
:10ECD00090910302A0910402B091050280509F4FD1
:10ECE000AF4FBF4F8093020290930302A0930402A0
:10ECF000B093050280509041A040B04008F426CE69
:10ED0000A4CF83EB92EE62E00F94F5F140910602FE
:10ED100050910702609108027091090280E020E1A1
:10ED20000F9491F28091060290910702A09108023F
:10ED3000B091090280509F4FAF4FBF4F80930602A2
:10ED400090930702A0930802B0930902FFCD80ECD4
:10ED500092EE62E00F94F5F183E792EE60E00F949B
:10ED6000F5F18FE792EE60E00F94F5F18BE892EE0B
:10ED700060E00F94F5F189E992EE60E00F94F5F10F
:10ED800085EA92EE60E00F94F5F183EB92EE60E09D
:10ED90000F94F5F180EC92EE60E00F94F5F187ECC2
:10EDA00092EE60E00F94F5F188ED92EE60E00F9442
:10EDB000F5F18FED92EE60E00F94F5F18AEE92EEB0
:10EDC00060E00F94F5F183E093EEBDCD87EC92EE19
:10EDD00062E00F94F5F181E40F947BF282E40F94EA
:10EDE0007BF283E40F947BF284E40F947BF285E45E
:10EDF0000F947BF286E40F947BF287E40F947BF20E
:10EE000088E40F947BF28AE40F947BF28BE40F94F6
:10EE10007BF28CE40F947BF299CD88ED92EE62E068
:10EE20000F94F5F1772473948824992409C48FED05
:10EE300092EE62E00F94F5F140910A0250910B02BC
:10EE400060910C0270910D0282E020E10F9491F22A
:10EE500080910A0290910B02A0910C02B0910D02D8
:10EE600080509F4FAF4FBF4F80930A0290930B0289
:10EE7000A0930C02B0930D0269CD8AEE92EE62E08F
:10EE80000F94F5F184EE90EE60E00F94F5F18FECC5
:10EE900091EE60E00F94F5F1662477244301CC5D98
:10EEA000DE4F19821882C452D140D401C301B695F5
:10EEB000A79597958795CA5DDE4F88839983AA8326
:10EEC000BB83C652D140CC5DDE4FA881B981C4520C
:10EED000D1401196CC5DDE4FB983A883C452D14096
:10EEE000CD0162E070E00F9434F2B0E2B093C6005E
:10EEF0008091C00086FFFCCF8091C0008064809329
:10EF0000C000EDE2E093C6008091C00086FFFCCF18
:10EF10008091C00080648093C000F0E2F093C6004E
:10EF20008091C00086FFFCCF8091C00080648093F8
:10EF3000C000CA5DDE4FE880F9800A811B81C6529D
:10EF4000D140BB27A12F902F8F2D0F940DF2CA5DBA
:10EF5000DE4F8881C652D1400F940DF2B0E2FB2EF5
:10EF6000F092C6008091C00086FFFCCF8091C00067
:10EF700080648093C0000DE30093C6008091C000C0
:10EF800086FFFCCF8091C00080648093C00010E2B7
:10EF90001093C6008091C00086FFFCCF8091C00016
:10EFA00080648093C0008BBEF3012791C65DDE4F65
:10EFB0002883CA52D140A22EBB24CC24DD2408943D
:10EFC000611C711C811C911C8BBEF3018791282E42
:10EFD0003324442455240894611C711C811C911C09
:10EFE0008BBEF3013791C55DDE4F3883CB52D140E4
:10EFF0000894611C711C811C911C8BBEF30147910C
:10F00000C45DDE4F4883CC52D140ADEFEA2EAFEF66
:10F01000FA2EAFEF0A2FAFEF1A2F6E0C7F1C801E57
:10F02000911E142D032DF22CEE24EA0CFB1C0C1D5A
:10F030001D1D0F940DF220E22093C6008091C000A8
:10F0400086FFFCCF8091C00080648093C000C65DC5
:10F05000DE4F8881CA52D1400F940DF230E23093D6
:10F06000C6008091C00086FFFCCF8091C000806404
:10F070008093C000C45DDE4F8881CC52D1400F9494
:10F080000DF240E24093C6008091C00086FFFCCFA5
:10F090008091C00080648093C000C55DDE4F888190
:10F0A000CB52D1400F940DF250E25093C6008091A4
:10F0B000C00086FFFCCF8091C00080648093C000B8
:10F0C0008FEFE8168FEFF80680E0080780E018075A
:10F0D00031F484E092EE60E00F94C2F1DFC0D80119
:10F0E000C7018070907CA070B0708050904CA040A0
:10F0F000B040D1F52FEF3FE340E050E0E222F322B1
:10F1000004231523CA5DDE4FA880B980CA80DB8046
:10F11000C652D140AE0CBF1CC01ED11EAA0CBB1CD7
:10F12000CC1CDD1C8EE092EE60E00F94C2F1BB2798
:10F13000A12F902F8F2D0F940DF28E2D0F940DF285
:10F1400030E23093C6008091C00086FFFCCF8091F2
:10F15000C00080648093C0004EE34093C60080915D
:10F16000C00086FFFCCF87C08EE09EEFA0E0B0E03D
:10F17000E822F9220A231B239CE0E91694E9F90608
:10F1800090E0090790E0190709F088C0C45DDE4FE0
:10F19000A881CC52D140EA2EFF2400E010E0102FCD
:10F1A0000F2DFE2CEE24C55DDE4FB881CB52D14031
:10F1B000EB0EF11C011D111DD601C501817090706F
:10F1C000A070B070DC0199278827E80EF91E0A1F8D
:10F1D0001B1F20EF30E040E050E0A222B322C42207
:10F1E000D52241E1AA0CBB1CCC1CDD1C4A95D1F7F1
:10F1F000EA0CFB1C0C1D1D1D81E090E0A0E0B0E0BE
:10F20000282239224A225B2235E1220C331C441C7D
:10F21000551C3A95D1F7E20CF31C041D151D57013E
:10F220006801AA0CBB1CCC1CDD1C85E192EE60E0E1
:10F230000F94C2F1C801AA27BB270F940DF2BB2778
:10F24000A12F902F8F2D0F940DF28E2D0F940DF274
:10F2500090E29093C6008091C00086FFFCCF809121
:10F26000C00080648093C000AEE3A093C60080918C
:10F27000C00086FFFCCF8091C00080648093C000F6
:10F28000C601AA27BB270F940DF2BB27AD2D9C2DDD
:10F290008B2D0F940DF28A2D0F940DF20F94DCF14B
:10F2A000CC5DDE4FE881F981C452D140F99709F471
:10F2B0004DCBF4E0EF2EF12C012D112D6E0C7F1CA7
:10F2C000801E911EF2CD83E093EE62E00F94F5F183
:10F2D0008AE192EE60E00F94C2F18091C00087FF56
:10F2E000FCCF1091C6001F751093C6008091C0001E
:10F2F00086FFFCCF8091C00080648093C0000F9493
:10F30000DCF1812F81548A3108F036C1163409F4BA
:10F3100095C0173490F4133409F44EC0143430F40B
:10F320001134F1F0123409F01DC130C0143409F465
:10F3300059C0153409F016C16BC01A3409F4C4C0A1
:10F340001B3438F4173409F48FC0183409F00AC19B
:10F35000A1C01B3409F4D2C01C3409F003C1E8C0B9
:10F360008FEF81B90DC082B1809582B980E090E0C5
:10F37000E0EDF7E03197F1F70196883C9105C1F790
:10F380008091C00087FFEFCF12B8EFC08FEF84B934
:10F390000DC085B1809585B980E090E0E0EDF7E0A3
:10F3A0003197F1F70196883C9105C1F78091C00033
:10F3B00087FFEFCF15B8D9C08FEF87B90DC088B1DF
:10F3C000809588B980E090E0E0EDF7E03197F1F7C3
:10F3D0000196883C9105C1F78091C00087FFEFCF6F
:10F3E00018B8C3C08FEF8AB90DC08BB180958BB9A7
:10F3F00080E090E0E0EDF7E03197F1F70196883C8E
:10F400009105C1F78091C00087FFEFCF1BB8ADC059
:10F410008FEF8DB90DC08EB180958EB980E090E0F0
:10F42000E0EDF7E03197F1F70196883C9105C1F7DF
:10F430008091C00087FFEFCF1EB897C08FEF80BBD1
:10F440000DC081B3809581BB80E090E0E0EDF7E0F6
:10F450003197F1F70196883C9105C1F78091C00082
:10F4600087FFEFCF11BA81C08FEF83BB0DC084B38C
:10F47000809584BB80E090E0E0EDF7E03197F1F714
:10F480000196883C9105C1F78091C00087FFEFCFBE
:10F4900014BA6BC08FEF809301010FC080910201FD
:10F4A00080958093020180E090E0E0EDF7E03197F5
:10F4B000F1F70196883C9105C1F78091C00087FF64
:10F4C000EDCF1092020151C08FEF809304010FC065
:10F4D0008091050180958093050180E090E0E0ED4A
:10F4E000F7E03197F1F70196883C9105C1F78091DB
:10F4F000C00087FFEDCF1092050137C08FEF8093DA
:10F5000007010FC08091080180958093080180E079
:10F5100090E0E0EDF7E03197F1F70196883C910536
:10F52000C1F78091C00087FFEDCF109208011DC088
:10F530008FEF80930A010FC080910B01809580931B
:10F540000B0180E090E0E0EDF7E03197F1F70196F4
:10F55000883C9105C1F78091C00087FFEDCF1092E4
:10F560000B0103C085E292EEEEC98091C00087FFD7
:10F57000FCCF8091C600EAC988E392EEE4C98CE131
:10F5800091EEE1C988249924933011F1943028F444
:10F59000913089F09230B8F408C0953061F195301F
:10F5A000F0F0963009F048C043C02B3109F042C951
:10F5B00091E06BE13FC96227C15DDE4F2883CF52E6
:10F5C000D14092E037C9B22FA0E0622793E032C960
:10F5D000822F90E0A82BB92B622794E02BC92E3004
:10F5E00009F039C3622795E0C05DDE4F19821882A9
:10F5F000C053D1401FC9E1E0F0E0EC0FFD1FC05D3A
:10F60000DE4F08811981C053D140E00FF11F2083E4
:10F610000F5F1F4FC05DDE4F19830883C053D14079
:10F6200062270A171B0709F005C9D80196E002C92D
:10F63000261709F010C303C0973009F0FBC87724E0
:10F640009981933109F412C19431C8F4963009F4C8
:10F65000D8C0973050F4923009F406C1933009F4C1
:10F660006DC0913009F059C253C0913109F477C08F
:10F67000923108F0BBC0903109F04FC2F5C098310B
:10F6800009F487C0993150F4953109F4EFC09531F0
:10F6900008F4C6C1963109F040C2C2C19A3109F4DA
:10F6A0006CC09A3108F491C09B3109F45BC09D3164
:10F6B00009F033C29D81903359F48F81882311F46E
:10F6C0009EE11CC0813011F091E018C098E916C08D
:10F6D000892F807591F0903539F4E0E0F0E089E011
:10F6E0008093570094910AC0983539F4E3E0F0E034
:10F6F00089E080935700949101C090E01A821B82A8
:10F700008D818C831D829E831F8227E030E009C299
:10F710001A8288E08B8381E48C8386E58D8382E581
:10F720008E8389E48F8383E5888780E589878FE5E9
:10F730008A8782E38B872BE030E0F3C18A818139AD
:10F7400041F0823941F0803911F48FE005C080E04A
:10F7500003C082E001C08AE01A828B8344C0772410
:10F76000739482C08D81882311F48EE12CC0813086
:10F7700011F081E028C088E926C01A82E1E0F0E0BB
:10F7800089E08093570084918B831C8224E030E0D1
:10F79000C8C18B81803589F48C81883039F4E2E0EE
:10F7A000F0E089E08093570084910DC0E0E0F0E044
:10F7B00089E080935700849106C0E3E0F0E089E09F
:10F7C0008093570084911A82DFCF8D81836C99E0FA
:10F7D000E1E0F0E0082E90935700E89507B600FCB2
:10F7E000FDCF1A821B8223E030E09BC180EC8A832C
:10F7F000CE5CDE4F188219821A821B82C253D1401E
:10F800008EC18A8190E0A0E0B0E0582F44273327D2
:10F8100022278B8190E0A0E0B0E0DC0199278827C7
:10F82000282B392B4A2B5B2B8D8190E0A0E0B0E098
:10F83000282B392B4A2B5B2B8C8190E0A0E0B0E089
:10F84000BA2FA92F982F8827282B392B4A2B5B2BCF
:10F85000220F331F441F551FC05EDE4F288339839C
:10F860004A835B83C052D1401A8259C13A81C95C34
:10F87000DE4F3883C753D140CA5CDE4F1882C6536F
:10F88000D1408B81C82EDD24CA5CDE4F488159816E
:10F89000C653D140C42AD52A933109F082C0CE5C28
:10F8A000DE4F88819981AA81BB81C253D1408050AB
:10F8B000904CA340B04030F583E0CE5CDE4FE88052
:10F8C000F9800A811B81C253D140F70100935B008C
:10F8D00080935700E89507B600FCFDCFCE5CDE4F65
:10F8E000088119812A813B81C253D14000501F4FAA
:10F8F0002F4F3F4FCE5CDE4F088319832A833B8313
:10F90000C253D140C05EDE4F488159816A817B81FC
:10F91000C052D140DE011B9631E08C9111962C91A2
:10F9200011971296C75CDE4F2883C953D140C85C3B
:10F93000DE4F1882C853D14090E0C85CDE4FE881AA
:10F94000F981C853D1408E2B9F2B0C01FA01609393
:10F950005B0030935700E89511244E5F5F4F6F4F67
:10F960007F4F0EEFE02E0FEFF02ECE0CDF1CC114F8
:10F97000D10499F685E0C05EDE4F088119812A81A5
:10F980003B81C052D140F80120935B008093570027
:10F99000E89507B600FCFDCF81E180935700E8951C
:10F9A00035C0C05EDE4F88819981AA81BB81C0527B
:10F9B000D140B695A795979587957C018601ABE0D8
:10F9C000AA2EB12CAC0EBD1E0BC0D5016D915D01F0
:10F9D000C7010F947FFE0894E11CF11C01501040F8
:10F9E0000115110591F7A60160E070E0440F551F65
:10F9F000661F771FC05EDE4FE880F9800A811B8199
:10FA0000C052D1404E0D5F1D601F711F1A82C05E33
:10FA1000DE4F488359836A837B83C052D1407FC0C5
:10FA2000FA80C55CDE4FF882CB53D140C65CDE4F16
:10FA30001882CA53D1408B81C82EDD24C65CDE4FAC
:10FA400008811981CA53D140C02AD12A1A828981DA
:10FA5000BE016D5F7F4F843121F59601C05EDE4FA0
:10FA6000E880F9800A811B81C052D1400BBFF701A9
:10FA700087919691DB018C9311969C936E5F7F4FDB
:10FA8000D801C7010296A11DB11DC05EDE4F88835B
:10FA90009983AA83BB83C052D14022503040F1F6F3
:10FAA00036C0C05EDE4F288139814A815B81C052F9
:10FAB000D1400894C108D108760100E010E0089414
:10FAC000C11CD11C0894E11CF11C011D111DE20E8A
:10FAD000F31E041F151F21BDBB27A52F942F832FB5
:10FAE00082BD2F5F3F4F4F4F5F4FF89A80B5DB01CC
:10FAF0008D93BD012E153F054007510761F7C05E8C
:10FB0000DE4F288339834A835B83C052D1409601FC
:10FB10002D5F3F4FFB01108204C080EC8A8322E0FE
:10FB200030E08BE18093C6008091C00086FFFCCF5F
:10FB30008091C00080648093C000C15DDE4FF88179
:10FB4000CF52D140F093C6008091C00086FFFCCF19
:10FB50008091C00080648093C000432F3093C60022
:10FB60008091C00086FFFCCF8091C00080648093AC
:10FB7000C000922F2093C6008091C00086FFFCCF6A
:10FB80008091C00080648093C0008EE08093C600A6
:10FB90008091C00086FFFCCF8091C000806480937C
:10FBA000C00065E1C15DDE4FE880CF52D1406E25D7
:10FBB00069276427FE01319610C090819093C6009A
:10FBC0008091C00086FFFCCF31968091C000806498
:10FBD0008093C0006927215030402115310569F715
:10FBE0006093C6008091C00086FFFCCF8091C0006A
:10FBF00080648093C00085B1805885B9772081F4F6
:10FC0000C15DDE4F0881CF52D1400F5FC15DDE4F35
:10FC10000883CF52D14090E0A0E0B0E00D941AF4F8
:10FC200027982F9880E090E020ED37E0F901319798
:10FC3000F1F7019684369105C9F700008091C00064
:10FC40008D7F8093C00081E180935700E895EE2777
:10FC5000FF270994FFCF90E00D941AF497FB092E2B
:10FC600007260AD077FD04D02ED006D000201AF443
:10FC7000709561957F4F0895F6F7909581959F4F08
:10FC80000895A1E21A2EAA1BBB1BFD010DC0AA1FDD
:10FC9000BB1FEE1FFF1FA217B307E407F50720F0F5
:10FCA000A21BB30BE40BF50B661F771F881F991F70
:10FCB0001A9469F760957095809590959B01AC01B9
:10FCC000BD01CF010895AA1BBB1B51E107C0AA1FAC
:10FCD000BB1FA617B70710F0A61BB70B881F991FED
:10FCE0005A95A9F780959095BC01CD010895F99991
:10FCF000FECF92BD81BDF89A992780B50895262F31
:10FD0000F999FECF1FBA92BD81BD20BD0FB6F89400
:0EFD1000FA9AF99A0FBE01960895F894FFCF63
:00000001FF
