:100000000C9422010C9453010C9453010C94530151
:100010000C9453010C9453010C9453010C94530110
:100020000C9453010C9453010C9453010C94530100
:100030000C9453010C9453010C9453010C945301F0
:100040000C9453010C9453010C9453010C945301E0
:100050000C9453010C9453010C9453010C94C80458
:100060000C9453010C9453010C9453010C945301C0
:100070000C9453010C9453010C9453010C945301B0
:100080000C9453010C9453010C9453010C945301A0
:100090000C9453010C9453010C9453010C94530190
:1000A0000C9453010C9453010C9453010C94530180
:1000B0000C9453010C9453010C9453010C94530170
:1000C0000C9453010C9453010C9453010C94530160
:1000D0000C9453010C9453010C9453010C94530150
:1000E0000C9453010C94F4010C9427020C941D02FF
:1000F0000C94EC010C94FD010C9447020C94E80163
:100100000C9415020C940B020C94D6010C94010271
:100110000C9423020C94F7010C94D1010C94EA0383
:100120000C9407020C9419020C940F020C944802D0
:100130000C94F0010C9437080C94740100000A0B25
:1001400002090C0D0E080703040100000000000066
:10015000000000000000000000000000000000009F
:10016000000000000000000012111000000000005C
:10017000000000000000000000000000000000007F
:10018000000000002200250028002B002E00310076
:10019000340002010000050108010B0100002100EC
:1001A000240027002A002D00300033000101000048
:1001B000040107010A0105050505070508080808E7
:1001C000020202020A0A08080404040401010101EF
:1001D00001010101030303030303030304070707EA
:1001E0000C0C0C0C0C0C0C0C02020202060606068F
:1001F000060606060B0B0B0B0B0B0B0B010210205C
:10020000200808102040102040800201020108044C
:1002100002010102040810204080804020100804E0
:100220000201800402018040201008040201080439
:10023000020101020408102040800102040810207D
:100240004080370811241FBECFEFD1E2DEBFCDBF03
:1002500000E00CBF12E0A0E0B2E0E2E5F7E100E070
:100260000BBF02C007900D92A037B107D9F722E06B
:10027000A0E7B2E001C01D92A139B207E1F711E099
:10028000C2E2D1E000E006C021970109802FFE0103
:100290000E949F0BC132D10780E00807A9F70E9496
:1002A00012050C94A70B0C94000090E0FC01E450A4
:1002B000FE4F24918A549E4FFC018491882399F02B
:1002C00090E0880F991FFC01E456FE4FA591B49170
:1002D000FC01EE57FE4F859194918FB7F894EC9105
:1002E000E22BEC938FBF0895AF92BF92CF92DF9233
:1002F000EF92FF920F931F93CF93DF936C017B01DB
:100300008B01040F151FEB015E01AE18BF08C0176B
:10031000D10759F06991D601ED91FC910190F081DE
:10032000E02DC6011995892B79F7C501DF91CF9191
:100330001F910F91FF90EF90DF90CF90BF90AF9003
:100340000895282F30E0F901E45CFE4F9491F90103
:10035000E450FE4F44912A543E4FF9012491222348
:1003600009F435C0992311F191509231F8F4E92F35
:10037000F0E08827E154FE4F8F4F0C949F0BF00163
:10038000F401D101E801EC01D601F701FD01010200
:1003900007020B020F0215021902D6011D022302E9
:1003A0002702809180008F7780938000E22FF0E019
:1003B000EE0FFF1FEE57FE4FA591B4918FB7F89443
:1003C000EC91611148C040954E234C938FBF089526
:1003D000809180008F7DE8CF80918000877FE4CF7F
:1003E00084B58F7784BDE2CF84B58F7DFBCF8091BC
:1003F000B0008F778093B000D9CF8091B0008F7D0F
:10040000F9CF809190008F7780939000CFCF80912B
:1004100090008F7DF9CF80919000877FF5CF8091FC
:10042000A0008F778093A000C1CF8091A0008F7D26
:10043000F9CF8091A000877FF5CF809120018F7741
:1004400080932001B3CF809120018F7DF9CF8091DF
:100450002001877FF5CF4E2BB8CF863309F480E09B
:1004600090917B00977F90937B008770806480934E
:100470007C0080917A00806480937A0080917A0079
:1004800086FDFCCF809178009091790008950895C1
:1004900090E080E00895FC0101900020E9F7319799
:1004A000AF01481B590BBC0189E792E00C94740121
:1004B0008F929F92AF92BF920F931F93CF93DF9330
:1004C000CDB7DEB7A1970FB6F894DEBF0FBECDBF94
:1004D00019A2423008F44AE08E010F5D1F4F842EAE
:1004E000912CB12CA12CA50194010E942B09E62F7F
:1004F000B901CA01EA30F4F4E05DD801EE938D0150
:10050000232B242B252B79F790E080E0109719F00E
:10051000CD010E944B02A1960FB6F894DEBF0FBE2C
:10052000CDBFDF91CF911F910F91BF90AF909F9062
:100530008F900895E95CE1CF0C944B02CF93DF9349
:10054000EC0160E08E810E94A10161E08E810E9439
:10055000A10160E08E810E94A1018BE891E00197EA
:10056000F1F7DF91CF910895CF92DF92EF92FF9252
:100570000F931F93CF93DF936C017C0187E0E80E0C
:10058000F11CD0E0C0E0062F10E0B8010C2E02C034
:10059000759567950A94E2F76170F70181917F0183
:1005A0000E94A1012196C430D10579F7C601DF91DF
:1005B000CF911F910F91FF90EF90DF90CF900C940F
:1005C0009E02CF92DF92EF92FF920F931F93CF93F1
:1005D000DF93EC01F62E642F8C810E94A1018D81A6
:1005E0008F3F19F060E00E94A1010F2D10E08F8570
:1005F00084FF25C06E0187E0C80ED11CF12CE12CD0
:10060000B8010E2C02C0759567950A94E2F76170E7
:10061000F60181916F010E94A101FFEFEF1AFF0A1D
:1006200088E0E816F10461F7CE01DF91CF911F91C8
:100630000F91FF90EF90DF90CF900C949E02B80145
:1006400084E0759567958A95E1F7CE010E94B40222
:100650006F2DCE01DF91CF911F910F91FF90EF9001
:10066000DF90CF900C94B40240E0682F89E792E0CD
:100670000C94E102CF93DF93813029F090918802AE
:1006800098609093880280938C0210928D0280E48F
:1006900080938E0280E180938F0280E580939002A8
:1006A00080917D020E94550180917E028F3F11F062
:1006B0000E94550180917F020E945501C9E7D2E056
:1006C0009E01295732408091880284FD0AC084E04F
:1006D00090E02196281739073CF48E810E9455013D
:1006E000EFCF88E090E0F5CF8BE39DE00197F1F745
:1006F00060E080917D020E94A10160E080917F0214
:100700000E94A10180917E028F3F19F060E00E945B
:10071000A1018091880284FD39C063E089E792E0FD
:100720000E94B402CBE4D6E4CE010197F1F763E076
:1007300089E792E00E94B4022197F1F763E089E72C
:1007400092E00E94B40283E592E00197F1F762E043
:1007500089E792E00E94B4028091880280620E9440
:10076000340384E0809389028CE00E94340381E0AA
:100770000E9434038BE39FE10197F1F782E08093BD
:100780008A0286E0DF91CF910C94340380620E944C
:1007900034038BE496E40197F1F78091880280623C
:1007A0000E94340383E592E00197F1F7809188027B
:1007B00080620E943403D0CF90918C02891710F090
:1007C0008FEF890FE82FF0E0E758FD4F84898068AC
:1007D0000C94340341E00E94E10281E090E008952E
:1007E0004F925F926F927F928F929F92AF92BF9241
:1007F000CF92DF92EF92FF92CF93DF936B017C0158
:10080000AC019B010E949A0B882391F080E192E059
:10081000DF91CF91FF90EF90DF90CF90BF90AF909E
:100820009F908F907F906F905F904F900C944B02B1
:1008300046015701E894B7F82FEF3FEF4FE75FE726
:10084000C501B4010E949A0B81110DC02FEF3FEF3B
:100850004FE75FE7C501B4010E94C90918161CF4EF
:1008600084E192E0D5CF2FEF3FEF4FE75FE4C70180
:10087000B6010E94280B18161CF488E192E0C8CF3C
:100880002FEF3FEF4FE75FECC701B6010E94C909A8
:1008900087FDF3CF20E030E0A901C701B6010E9437
:1008A000C909D0E0C0E087FF0CC041E06DE289E7F4
:1008B00092E00E94E102F7FAF094F7F8F094C1E0B8
:1008C000D0E02AE037ED43EA5BE3C701B6010E94BE
:1008D0005D094B015C010E94470A6B017C010E948B
:1008E000760A9B01AC01C501B4010E945C094B0171
:1008F0005C014AE0C701B6010E9458027C01EC0E7F
:10090000FD1E41E06EE289E792E00E94E1028FEF76
:10091000E81AF80A20E030E040E251E4C501B401F1
:100920000E942D0B2B013C010E94470A4B01B12C68
:10093000A12C4AE0C501B4010E945802E80EF91E3C
:10094000C501B4010E94760A9B01AC01C301B2014A
:100950000E945C0920E030E040E251E40E942D0B4F
:100960000E94470A90E080E04AE00E9458028E0D03
:100970009F1DDF91CF91FF90EF90DF90CF90BF90C0
:10098000AF909F908F907F906F905F904F90089561
:100990001F920F920FB60F9211242F933F938F93B4
:1009A0009F93AF93BF938091750290917602A0912F
:1009B0007702B09178023091740223E0230F2D3733
:1009C00058F50196A11DB11D209374028093750204
:1009D00090937602A0937702B09378028091700290
:1009E00090917102A0917202B09173020196A11DC3
:1009F000B11D8093700290937102A0937202B09324
:100A00007302BF91AF919F918F913F912F910F9062
:100A10000FBE0F901F90189526E8230F0296A11D78
:100A2000B11DD2CF789484B5826084BD84B58160D5
:100A300084BD85B5826085BD85B5816085BD8091A9
:100A40006E00816080936E00109281008091810021
:100A50008260809381008091810081608093810019
:100A6000809180008160809380008091B1008460DB
:100A70008093B1008091B00081608093B00080913C
:100A800091008260809391008091910081608093B9
:100A90009100809190008160809390008091A100EE
:100AA00082608093A1008091A10081608093A10069
:100AB0008091A00081608093A000809121018260DC
:100AC0008093210180912101816080932101809197
:100AD000200181608093200180917A00846080935E
:100AE0007A0080917A00826080937A0080917A0007
:100AF000816080937A0080917A00806880937A0088
:100B00001092C10081E00E942D02BC01990F880B58
:100B1000990B611571058105910511F00E94F0088E
:100B200087E10E94550189E10E9455018BE10E94F5
:100B300055018DE10E9455018FE10E94550181E22E
:100B40000E94550183E20E94550185E20E945501F1
:100B500087E20E94550189E20E9455018BE20E94C2
:100B600055018DE20E94550160E087E10E94A101DC
:100B700060E089E10E94A10160E08BE10E94A10197
:100B800060E08DE10E94A10160E08FE10E94A1017F
:100B900060E081E20E94A10160E083E20E94A10185
:100BA00060E085E20E94A10160E087E20E94A1016D
:100BB00060E089E20E94A10160E08BE20E94A10155
:100BC00060E08DE20E94A10184E00E943A03C0E04F
:100BD000D0E086E30E942D02BC01990F880B990B8F
:100BE0000E94780A20E030E040EA50E40E942D0B99
:100BF00020E030EC4FE754E40E94CE092AE037EDC4
:100C000043E25CE30E94CE090E94400A072E000CDA
:100C1000880B990B0E94780A6B017C0180E00E948E
:100C2000DC038CE192E00E949C0282E00E94DC03E3
:100C3000C701B6010E94F00320E030E040EA51E431
:100C4000C701B6010E94C909811116C00E94DC03C8
:100C500061E08DE20E94A10182E292E00E949C028A
:100C600082E00E94DC0360E070E080EA91E40E9490
:100C7000F00384E692E0C0C020E030E040EA51E4B6
:100C8000C701B6010E94C90987FF0CC080E00E941D
:100C9000DC038EE292E00E949C0260E08DE20E9402
:100CA000A101ACC020E030E048EC51E4C701B6013E
:100CB0000E94C909811112C00E94DC0361E08BE22D
:100CC0000E94A10182E292E00E949C0282E00E94C6
:100CD000DC0360E070E088EC91E4C9CF20E030E014
:100CE00048EC51E4C701B6010E94C90987FF03C05F
:100CF00060E08BE2D4CF20E030E040EF51E4C70168
:100D0000B6010E94C909811112C00E94DC0361E092
:100D100089E20E94A10182E292E00E949C0282E0AC
:100D20000E94DC0360E070E080EF91E4A0CF20E05F
:100D300030E040EF51E4C701B6010E94C90987FFC6
:100D400003C060E089E2ABCF20E030E04CE052E449
:100D5000C701B6010E94C909811112C00E94DC03BB
:100D600061E087E20E94A10182E292E00E949C027F
:100D700082E00E94DC0360E070E08CE092E477CFD8
:100D800020E030E04CE052E4C701B6010E94C909FE
:100D900087FF03C060E087E282CF20E030E040E2DE
:100DA00052E4C701B6010E94C909811112C00E9414
:100DB000DC0361E085E20E94A1018AE392E00E94E7
:100DC0009C0282E00E94DC0360E070E080E292E43A
:100DD0004ECF20E030E040E252E4C701B6010E946D
:100DE000C90987FF11C080E00E94DC0360E085E252
:100DF0000E94A10182E292E00E949C02209709F4E5
:100E0000E8CE0E940000E5CE20E030E044E352E46A
:100E1000C701B6010E94C909811112C00E94DC03FA
:100E200061E083E20E94A1018AE392E00E949C02B9
:100E300082E00E94DC0360E070E084E392E417CF7C
:100E400020E030E044E352E4C701B6010E94C90942
:100E500087FF03C060E083E222CF20E030E048E477
:100E600052E4C701B6010E94C909811112C00E9453
:100E7000DC0361E081E20E94A1018AE392E00E942A
:100E80009C0282E00E94DC0360E070E088E492E46F
:100E9000EECE20E030E048E452E4C701B6010E9403
:100EA000C90987FF03C060E081E2F9CE20E030E0AD
:100EB0004CE552E4C701B6010E94C909811112C074
:100EC0000E94DC0361E08FE10E94A1018AE392E0CD
:100ED0000E949C0282E00E94DC0360E070E08CE5EE
:100EE00092E4C5CE20E030E04CE552E4C701B60103
:100EF0000E94C90987FF03C060E08FE1D0CE20E0E7
:100F000030E040E752E4C701B6010E94C9098111EF
:100F100019C00E94DC0361E08DE10E94A10186E41A
:100F200092E00E949C0282E00E94DC0360E070E09C
:100F300080E792E40E94F00383E00E94DC0382E5F4
:100F400092E05ACF20E030E040E752E4C701B6011A
:100F50000E94C90987FF11C080E00E94DC0360E0A5
:100F60008DE10E94A1018AE392E00E949C0283E04D
:100F70000E94DC0381E692E03FCF20E030E042E8CF
:100F800052E4C701B6010E94C909811112C00E9432
:100F9000DC0361E08BE10E94A10186E492E00E9403
:100FA0009C0282E00E94DC0360E070E082E892E450
:100FB0005ECE20E030E042E852E4C701B6010E9474
:100FC000C90987FF03C060E08BE169CE20E030E013
:100FD0004CE852E4C701B6010E94C909811112C050
:100FE0000E94DC0361E089E10E94A10186E492E0B5
:100FF0000E949C0282E00E94DC0360E070E08CE8CA
:1010000092E435CE20E030E04CE852E4C701B6016E
:101010000E94C90987FF03C060E089E140CE20E05B
:1010200030E046E952E4C701B6010E94280B87FD73
:1010300011C080E00E94DC0361E087E10E94A10111
:1010400086E492E00E949C0282E00E94DC03C701D9
:10105000B6010DCE20E030E046E952E4C701B6010A
:101060000E94C90987FFCACE60E087E118CEE9E790
:10107000F2E01382128288E092E0918380838CE018
:1010800084838FEF85838BE0868385E0878384E08C
:10109000808783E0818782E08287138614861586A5
:1010A0001686178681E00C943A038F929F92AF9236
:1010B000BF92CF92DF92EF92FF92CF93DF93EC013A
:1010C000688179818A819B8161157105810591050E
:1010D00021F464E279ED8BE597E02DE133EF41E017
:1010E00050E00E94F90849015A019B01AC01A7EAAE
:1010F000B1E40E9418096B017C01ACEEB4EFA501CC
:1011000094010E942609C60ED71EE81EF91EF7FE9E
:1011100006C081E0C81AD108E10880E8F80AC88250
:10112000D982EA82FB82C701B6019F77DF91CF9116
:10113000FF90EF90DF90CF90BF90AF909F908F90F7
:1011400008958F929F92AF92BF92CF92DF92EF92CB
:10115000FF926091000270910102809102029091D1
:101160000302611571058105910521F464E279EDB1
:101170008BE597E02DE133EF41E050E00E94F90864
:1011800049015A019B01AC01A7EAB1E40E94180988
:101190006B017C01ACEEB4EFA50194010E9426091D
:1011A000C60ED71EE81EF91EF7FE06C081E0C81A5B
:1011B000D108E10880E8F80AC0920002D09201024A
:1011C000E0920202F0920302C701B6019F77FF90FE
:1011D000EF90DF90CF90BF90AF909F908F90089549
:1011E00060930002709301028093020290930302C5
:1011F0000895052E97FB1EF400940E94100957FDD8
:1012000007D00E942B0907FC03D04EF40C94100960
:1012100050954095309521953F4F4F4F5F4F089522
:1012200090958095709561957F4F8F4F9F4F089552
:101230000E944D09A59F900DB49F900DA49F800D15
:10124000911D11240895B7FF0C9418090E941809E4
:10125000821B930B0895A1E21A2EAA1BBB1BFD0152
:101260000DC0AA1FBB1FEE1FFF1FA217B307E40785
:10127000F50720F0A21BB30BE40BF50B661F771FDD
:10128000881F991F1A9469F76095709580959095BD
:101290009B01AC01BD01CF010895A29FB001B39F96
:1012A000C001A39F700D811D1124911DB29F700D6F
:1012B000811D1124911D08955058BB27AA270E9413
:1012C00074090C94EE0A0E94E00A38F00E94E70AC2
:1012D00020F039F49F3F19F426F40C94DD0A0EF443
:1012E000E095E7FB0C94D70AE92F0E94FF0A58F318
:1012F000BA17620773078407950720F079F4A6F5FB
:101300000C94210B0EF4E0950B2EBA2FA02D0B019F
:10131000B90190010C01CA01A0011124FF27591B3A
:1013200099F0593F50F4503E68F11A16F040A22F40
:10133000232F342F4427585FF3CF469537952795B1
:10134000A795F0405395C9F77EF41F16BA0B620BB0
:10135000730B840BBAF09150A1F0FF0FBB1F661FF7
:10136000771F881FC2F70EC0BA0F621F731F841F3A
:1013700048F4879577956795B795F7959E3F08F060
:10138000B0CF9395880F08F09927EE0F9795879522
:1013900008950E94B30A08F481E008950E94E209CA
:1013A0000C94EE0A0E94E70A58F00E94E00A40F00E
:1013B00029F45F3F29F00C94D70A51110C94220BA9
:1013C0000C94DD0A0E94FF0A68F39923B1F35523B8
:1013D00091F3951B550BBB27AA2762177307840748
:1013E00038F09F5F5F4F220F331F441FAA1FA9F3DE
:1013F00035D00E2E3AF0E0E832D091505040E695CC
:10140000001CCAF72BD0FE2F29D0660F771F881F2C
:10141000BB1F261737074807AB07B0E809F0BB0B1F
:10142000802DBF01FF2793585F4F3AF09E3F510533
:1014300078F00C94D70A0C94220B5F3FE4F3983EAB
:10144000D4F3869577956795B795F7959F5FC9F71C
:10145000880F911D9695879597F90895E1E0660F9D
:10146000771F881FBB1F621773078407BA0720F016
:10147000621B730B840BBA0BEE1F88F7E09508957F
:101480000E94470A6894B1110C94220B08950E949F
:10149000070B88F09F5798F0B92F9927B751B0F0F4
:1014A000E1F0660F771F881F991F1AF0BA95C9F7E8
:1014B00014C0B13091F00E94210BB1E008950C945A
:1014C000210B672F782F8827B85F39F0B93FCCF30D
:1014D000869577956795B395D9F73EF49095809565
:1014E000709561957F4F8F4F9F4F0895E89409C085
:1014F00097FB3EF490958095709561957F4F8F4F47
:101500009F4F9923A9F0F92F96E9BB279395F6955C
:10151000879577956795B795F111F8CFFAF4BB0FDA
:1015200011F460FF1BC06F5F7F4F8F4F9F4F16C03E
:10153000882311F096E911C0772321F09EE8872FC8
:10154000762F05C0662371F096E8862F70E060E084
:101550002AF09A95660F771F881FDAF7880F9695FD
:10156000879597F90895990F0008550FAA0BE0E8A1
:10157000FEEF16161706E807F907C0F01216130655
:10158000E407F50798F0621B730B840B950B39F495
:101590000A2661F0232B242B252B21F408950A26FB
:1015A00009F4A140A6958FEF811D811D089597F93B
:1015B0009F6780E870E060E008959FEF80EC0895F9
:1015C00000240A9416161706180609060895002422
:1015D0000A9412161306140605060895092E03949C
:1015E000000C11F4882352F0BB0F40F4BF2B11F410
:1015F00060FF04C06F5F7F4F8F4F9F4F089557FD6F
:101600009058440F551F59F05F3F71F04795880F70
:1016100097FB991F61F09F3F79F087950895121607
:1016200013061406551FF2CF4695F1DF08C01616B3
:1016300017061806991FF1CF869571056105089464
:101640000895E894BB2766277727CB0197F908957B
:101650000E94B30A08F48FEF08950E94400B0C9487
:10166000EE0A0E94E00A38F00E94E70A20F0952373
:1016700011F00C94D70A0C94DD0A11240C94220B5F
:101680000E94FF0A70F3959FC1F3950F50E0551F1C
:10169000629FF001729FBB27F00DB11D639FAA27C7
:1016A000F00DB11DAA1F649F6627B00DA11D661F16
:1016B000829F2227B00DA11D621F739FB00DA11D37
:1016C000621F839FA00D611D221F749F3327A00DF1
:1016D000611D231F849F600D211D822F762F6A2F8D
:1016E00011249F5750409AF0F1F088234AF0EE0FF2
:1016F000FF1FBB1F661F771F881F91505040A9F71F
:101700009E3F510580F00C94D70A0C94220B5F3F4A
:10171000E4F3983ED4F3869577956795B795F7955A
:10172000E7959F5FC1F7FE2B880F911D96958795D2
:1017300097F908950E94B30A880B990B0895EE0F4C
:10174000FF1F881F8BBF0790F691E02D1994F89426
:02175000FFCFC9
:101752000100000000000000EA0374014802470291
:101762006E616E00696E66006F76660054656D701C
:101772002E0054656D702E204261697861005465B7
:101782006D702E2020202020200054656D702E20A8
:101792004D656469610054656D702E20416C746101
:1017A20020005369742E20646520416C61726D655E
:1017B2000020202020202020202020202020200067
:00000001FF
