:020000000328D3
:10000600831603130514851406108610061186112F
:10001600061286120613861383120514851406101B
:100026008610061186110612861206138613051807
:10003600862886170630FB001330FC00AD30FD0025
:10004600FD0B2328FC0B2328FB0B232800000000B4
:1000560006170630FB001330FC00AD30FD00FD0B2B
:100066003228FC0B3228FB0B3228000000008616D3
:100076000630FB001330FC00AD30FD00FD0B4128BF
:10008600FC0B4128FB0B4128000000000616063039
:10009600FB001330FC00AD30FD00FD0B5028FC0BBF
:1000A6005028FB0B50280000000086150630FB0088
:1000B6001330FC00AD30FD00FD0B5F28FC0B5F2804
:1000C600FB0B5F280000000006150630FB0013300E
:1000D600FC00AD30FD00FD0B6E28FC0B6E28FB0B03
:1000E6006E280000000086140630FB001330FC006A
:1000F600AD30FD00FD0B7D28FC0B7D28FB0B7D281C
:100106000000000006148518F22886130630FB004E
:100116001330FC00AD30FD00FD0B8F28FC0B8F2843
:10012600FB0B8F280000000006130630FB0013307F
:10013600FC00AD30FD00FD0B9E28FC0B9E28FB0B42
:100146009E280000000086120630FB001330FC00DB
:10015600AD30FD00FD0BAD28FC0BAD28FB0BAD282B
:100166000000000006120630FB001330FC00AD3024
:10017600FD00FD0BBC28FC0BBC28FB0BBC280000BB
:10018600000086110630FB001330FC00AD30FD0088
:10019600FD0BCB28FC0BCB28FB0BCB28000000006B
:1001A60006110630FB001330FC00AD30FD00FD0BE0
:1001B600DA28FC0BDA28FB0BDA2800000000861090
:1001C6000630FB001330FC00AD30FD00FD0BE928C6
:1001D600FC0BE928FB0BE9280000000006101A2892
:0201E600F328FC
:02400E006A2125
:00000001FF
