:020000000328D3
:10000600831603138601051085143F30831286007C
:100016000630FB001330FC00AD30FD00FD0B11284F
:10002600FC0B1128FB0B112800000000063086008F
:100036000630FB001330FC00AD30FD00FD0B21281F
:10004600FC0B2128FB0B2128000000005B308600FA
:100056000630FB001330FC00AD30FD00FD0B3128EF
:10006600FC0B3128FB0B3128000000004F308600C6
:100076000630FB001330FC00AD30FD00FD0B4128BF
:10008600FC0B4128FB0B412800000000663086006F
:100096000630FB001330FC00AD30FD00FD0B51288F
:1000A600FC0B5128FB0B5128000000006D30860028
:1000B6000630FB001330FC00AD30FD00FD0B61285F
:1000C600FC0B6128FB0B612800000000FD30860058
:1000D6000630FB001330FC00AD30FD00FD0B71282F
:1000E600FC0B7128FB0B712800000000073086000E
:1000F6000630FB001330FC00AD30FD00FD0B8128FF
:10010600FC0B8128FB0B8128000000007F30860055
:100116000630FB001330FC00AD30FD00FD0B9128CE
:10012600FC0B9128FB0B9128000000006F30860025
:10013600013085000630FB001330FC00AD30FD00B9
:10014600FD0BA328FC0BA328FB0BA3280000000033
:100156008518502985013F3086000630FB00133094
:10016600FC00AD30FD00FD0BB628FC0BB628FB0BE2
:10017600B62800000000063086000630FB0013306B
:10018600FC00AD30FD00FD0BC628FC0BC628FB0BA2
:10019600C628000000005B3086000630FB001330E6
:1001A600FC00AD30FD00FD0BD628FC0BD628FB0B62
:1001B600D628000000004F3086000630FB001330C2
:1001C600FC00AD30FD00FD0BE628FC0BE628FB0B22
:1001D600E62800000000663086000630FB0013307B
:1001E600FC00AD30FD00FD0BF628FC0BF628FB0BE2
:1001F600F628000000006D3086000630FB00133044
:10020600FC00AD30FD00FD0B0629FC0B0629FB0B9F
:10021600062900000000FD3086000630FB00133082
:10022600FC00AD30FD00FD0B1629FC0B1629FB0B5F
:10023600162900000000073086000630FB00133048
:10024600FC00AD30FD00FD0B2629FC0B2629FB0B1F
:100256002629000000007F3086000630FB001330A0
:10026600FC00AD30FD00FD0B3629FC0B3629FB0BDF
:100276003629000000006F30860001308500063008
:10028600FB001330FC00AD30FD00FD0B4829FC0BD4
:0E0296004829FB0B482900000000AB28512925
:02400E006A2125
:00000001FF
