:020000040000FA
:100000000C9463000C948B000C948B000C948B006C
:100010000C948B000C948B000C948B000C94A90313
:100020000C948B000C948B000C948B000C948B0024
:100030000C948B000C948B000C948B000C948B0014
:100040000C9483040C948B000C9451040C942B049A
:100050000C948B000C948B000C948B000C948B00F4
:100060000C948B000C948B000000000024002700EF
:100070002A0000000008000201000003040700003D
:1000800000000000000000000000230026002900FE
:10009000010204081020408001020408102001021F
:1000A0000408102000000000250028002B00040494
:1000B0000404040404040202020202020303030310
:1000C00003030200730711241FBECFEFD8E0DEBF89
:1000D000CDBF11E0A0E0B1E0E4E8F3E102C005909B
:1000E0000D92A433B107D9F721E0A4E3B1E001C038
:1000F0001D92AF3EB207E1F710E0C3E6D0E004C0C6
:100100002197FE010E94BA09C236D107C9F70E94A1
:1001100012050C94C0090C940000AF92BF92CF92CC
:10012000DF92EF92FF920F931F93CF93DF936C01B7
:100130007B018B01040F151FEB015E01AE18BF0898
:10014000C017D10759F06991D601ED91FC9101904A
:10015000F081E02DC6010995892B79F7C501DF9162
:10016000CF911F910F91FF90EF90DF90CF90BF90B4
:10017000AF900895FC01538D448D252F30E0842FDE
:1001800090E0821B930B541710F0CF9608950197BF
:100190000895FC01918D828D981761F0A28DAE0FAC
:1001A000BF2FB11D5D968C91928D9F5F9F73928F33
:1001B00090E008958FEF9FEF0895FC01918D828D5F
:1001C000981731F0828DE80FF11D858D90E008952C
:1001D0008FEF9FEF0895FC01918D228D892F90E084
:1001E000805C9F4F821B91098F739927089582E548
:1001F00091E00E94EB0021E0892B09F420E0822F9E
:10020000089580E090E0892B29F00E94F700811189
:100210000C9400000895FC01A48DA80FB92FB11D06
:10022000A35ABF4F2C91848D90E001968F7399272C
:10023000848FA689B7892C93A089B1898C9183700A
:1002400080648C93938D848D981306C00288F38903
:10025000E02D80818F7D80830895EF92FF920F9330
:100260001F93CF93DF93EC0181E0888F9B8D8C8D62
:1002700098131AC0E889F989808185FF15C09FB756
:10028000F894EE89FF896083E889F9898081837019
:10029000806480839FBF81E090E0DF91CF911F91C8
:1002A0000F91FF90EF900895F62E0B8D10E00F5FE9
:1002B0001F4F0F731127E02E8C8D8E110CC00FB6BF
:1002C00007FCFACFE889F989808185FFF5CFCE0157
:1002D0000E940B01F1CFEB8DEC0FFD2FF11DE35AC6
:1002E000FF4FF0829FB7F8940B8FEA89FB898081DA
:1002F0008062CFCFCF93DF93EC01888D8823B9F054
:10030000AA89BB89E889F9898C9185FD03C0808120
:1003100086FD0DC00FB607FCF7CF8C9185FFF2CF9D
:10032000808185FFEDCFCE010E940B01E9CFDF91E7
:10033000CF91089590E0FC01EE58FF4F2491FC010D
:10034000E057FF4F3491FC01E255FF4FE491EE235B
:10035000C9F0222339F0233001F1A8F4213019F13A
:10036000223029F1F0E0EE0FFF1FEC55FF4FA59171
:10037000B4918FB7F894EC91611126C030953E236B
:100380003C938FBF08952730A9F02830C9F024305E
:1003900049F7809180008F7D03C0809180008F7726
:1003A00080938000DFCF84B58F7784BDDBCF84B5A9
:1003B0008F7DFBCF8091B0008F778093B000D2CF3C
:1003C0008091B0008F7DF9CF3E2BDACFCF93DF93B2
:1003D00090E0FC01E057FF4F249182559F4FFC01B4
:1003E00084918823D1F090E0880F991FFC01E8598F
:1003F000FF4FA591B491FC01EC55FF4FC591D491ED
:1004000061110EC09FB7F8948C91E22FE0958E2376
:100410008C932881E223E8839FBFDF91CF910895D9
:100420008FB7F894EC91E22BEC938FBFF6CFCF927D
:10043000DF92EF92FF920F931F93CF938C018091E5
:100440000001883059F08F3F09F44BC0CF911F91C4
:100450000F91FF90EF90DF90CF900895E2ECF0E0E5
:10046000C491C7FDF3CF61E088E00E94E601C111AD
:100470004EC0980150E040E068E478EE81E090E002
:100480000E948C0969017A0181E0C81AD108E1084B
:10049000F10885B5887F836085BD9801220F331FE1
:1004A000A4E6B0E00E94AB0928EE33E040E050E063
:1004B0000E946A09C13009F4B4C0C23009F4C3C053
:1004C000C111C4CFC7BC20934E0130934F0140935C
:1004D00050015093510180916E00826080936E00B4
:1004E000B5CF88E080930001E2ECF0E0C491CF3F0B
:1004F00009F4ACCFC13009F43DC018F1C23009F4A1
:1005000057C0C7FDA3CF61E088E00E94E6019801D3
:1005100050E040E0C23009F06DC060E970ED83E06A
:1005200090E00E948C0969017A0181E0C81AD10823
:10053000E108F1088091B100887F83608093B10069
:10054000ACCF14BC15BC84B5826084BD85B5816018
:1005500085BDE6EBF0E0E491F0E0EE0FFF1FEC5517
:10056000FF4F85919491E8E9F0E0E491E093450133
:10057000C0E079CF109280001092810080918100BC
:1005800088608093810080918100816080938100E8
:10059000E6EBF0E0E491F0E0EE0FFF1FEC55FF4FCB
:1005A00085919491E8E9F0E0E491E09344015BCF18
:1005B0001092B0001092B1008091B00082608093E0
:1005C000B0008091B10081608093B100E6EBF0E073
:1005D000E491F0E0EE0FFF1FEC55FF4F85919491F1
:1005E0009093430180934201E8E9F0E0E491E093C5
:1005F000410139CF60E072E18AE790E00E948C0906
:1006000069017A0181E0C81AD108E108F108C13016
:1006100009F043CF80918100887F816080938100C1
:100620003CCFD0928900C092880020934A01309339
:100630004B0140934C0150934D0180916F008260BB
:1006400080936F0003CFC092B30020934601309394
:1006500047014093480150934901809170008260A6
:1006600080937000F3CE3FB7F89480913901909158
:100670003A01A0913B01B0913C0126B5A89B05C071
:100680002F3F19F00196A11DB11D3FBFBA2FA92F11
:10069000982F8827BC01CD01620F711D811D911D0E
:1006A00042E0660F771F881F991F4A95D1F708957A
:1006B000FC0101900020E9F73197AF01481B590B6D
:1006C000BC0182E591E00C948D008F929F92AF92D5
:1006D000BF920F931F93CF93DF93CDB7DEB7A19750
:1006E0000FB6F894DEBF0FBECDBF19A2423008F49A
:1006F0004AE08E010F5D1F4F842E912CB12CA12C4E
:10070000A50194010E946A09E62FB901CA01EA30E5
:10071000F4F4E05DD801EE938D01232B242B252BDF
:1007200079F790E080E0109719F0CD010E9458030E
:10073000A1960FB6F894DEBF0FBECDBFDF91CF916B
:100740001F910F91BF90AF909F908F900895E95C9B
:10075000E1CF1F920F920FB60F9211242F933F9368
:100760004F935F936F937F938F939F93AF93BF93B9
:10077000EF93FF938091460190914701A09148012A
:10078000B0914901892B8A2B8B2BD1F1909141019A
:10079000E0914201F091430180818927808380911B
:1007A000460190914701A0914801B0914901181666
:1007B00019061A061B069CF4809146019091470188
:1007C000A0914801B09149010197A109B109809315
:1007D000460190934701A0934801B0934901FF91CE
:1007E000EF91BF91AF919F918F917F916F915F91A9
:1007F0004F913F912F910F900FBE0F901F90189522
:1008000080910001E2ECF0E0E4919FEF9093000111
:10081000E13051F030F0E23069F060E00E949A017E
:10082000DECF10926E00F9CF90916F009D7F909374
:100830006F00F3CF909170009D7F9093700091E0D6
:100840009093B0009091B100987F94609093B10024
:100850001092B300E2CF1F920F920FB60F921124A5
:100860002F933F934F935F936F937F938F939F93B8
:10087000AF93BF93EF93FF9382E591E00E940B014A
:10088000FF91EF91BF91AF919F918F917F916F9168
:100890005F914F913F912F910F900FBE0F901F903E
:1008A00018951F920F920FB60F9211242F938F93CA
:1008B0009F93EF93FF93E0916201F0916301808138
:1008C000E0916801F091690182FD1BC090818091E7
:1008D0006B018F5F8F7320916C01821741F0E09163
:1008E0006B01F0E0EE5AFE4F958F80936B01FF9104
:1008F000EF919F918F912F910F900FBE0F901F90AE
:1009000018958081F4CF1F920F920FB60F92112489
:100910002F933F938F939F93AF93BF938091350114
:1009200090913601A0913701B09138013091340196
:1009300023E0230F2D3758F50196A11DB11D2093FB
:1009400034018093350190933601A0933701B09321
:1009500038018091390190913A01A0913B01B09109
:100960003C010196A11DB11D8093390190933A017C
:10097000A0933B01B0933C01BF91AF919F918F91A8
:100980003F912F910F900FBE0F901F90189526E862
:10099000230F0296A11DB11DD2CFCF92DF92EF920D
:1009A000FF920F931F93E82FF92F05C001501109F3
:1009B0002109310961F1908196239417B9F305C09B
:1009C000015011092109310911F1908196239413E5
:1009D000F7CFC12CD12CE12CF12C0AC08FEFC81A13
:1009E000D80AE80AF80A0C151D052E053F0579F00E
:1009F00080818623841791F36C2D7D2D8E2D9F2D64
:100A00001F910F91FF90EF90DF90CF90089560E0DD
:100A100070E080E090E01F910F91FF90EF90DF90E9
:100A2000CF900895789484B5826084BD84B5816048
:100A300084BD85B5826085BD85B5816085BD8091A9
:100A40006E00816080936E00109281008091810021
:100A50008260809381008091810081608093810019
:100A6000809180008160809380008091B1008460DB
:100A70008093B1008091B00081608093B00080913C
:100A80007A00846080937A0080917A0082608093FB
:100A90007A0080917A00816080937A0080917A0058
:100AA000806880937A001092C10061E082E00E9429
:100AB000E60160E083E00E94E601E0916201F091CE
:100AC000630182E08083E0915E01F0915F0110821A
:100AD000E0916001F09161018FEC808310926A01D6
:100AE000E0916601F091670186E08083E091640106
:100AF000F0916501808180618083E0916401F091D3
:100B00006501808188608083E0916401F0916501D6
:100B1000808180688083E0916401F091650180812B
:100B20008F7D808361E084E00E94E60161E085E0E2
:100B30000E94E60161E086E00E94E60160E084E058
:100B40000E949A0160E085E00E949A0160E086E0E0
:100B50000E949A01CFE0D0E023E2A22EB12C31EB2B
:100B6000232E30E0332E40E0842E40E0942E60E0CF
:100B700082E00E949A01CE010197F1F761E082E0E4
:100B80000E949A01C5010197F1F760E082E00E949E
:100B90009A01E3E9F0E06491F1018491E82FF0E03B
:100BA000EE0FFF1FEA57FF4F8591949100E412E486
:100BB0002FE030E0462F0E94CD04611571058105BC
:100BC000910529F06F5F7F4F8F4F9F4F9F700E945D
:100BD000430826E933E44BE05DE30E94F80820E097
:100BE00030E040E05FE30E94F8086B017C01C092B6
:100BF0003D01D0923E01E0923F01F092400120E0A1
:100C000030E040E251E40E940D0887FF0CC060E034
:100C100084E00E949A0160E085E00E949A0160E011
:100C200086E00E949A0120E030E040E251E4C701F2
:100C3000B6010E94F30887FD1AC020E030E046E1CB
:100C400053E4C701B6010E940D0887FF10C060E0A1
:100C500084E00E949A0160E085E00E949A0161E0D0
:100C600086E00E949A0188EB9BE00E94170220E038
:100C700030E046E153E4C701B6010E94F30887FD66
:100C80001AC020E030E04AE753E4C701B6010E94F1
:100C90000D0887FF10C060E084E00E949A0161E0C7
:100CA00085E00E949A0160E086E00E949A0184EC4F
:100CB00099E00E94170220E030E04AE753E4C701C0
:100CC000B6010E94F30887FD1AC020E030E046E933
:100CD00053E4C701B6010E940D08181684F061E0C4
:100CE00084E00E949A0160E085E00E949A0160E041
:100CF00086E00E949A0188EB9BE00E94170220E0A8
:100D000030E046E953E4C701B6010E94F308181623
:100D100064F460E084E00E949A0160E085E00E9453
:100D20009A0160E086E00E949A0183E191E00E94CE
:100D30005803C0903D01D0903E01E0903F01F090FB
:100D40004001A7019601C701B6010E9465098823E9
:100D5000C1F185E291E00E94580381E391E00E9495
:100D600058030E9433036B017C0184E6482E512C0A
:100D7000612C712C0E9433036C197D098E099F0927
:100D8000683E734081059105A8F3F1E04F1A5108C0
:100D90006108710828EEC20E23E0D21EE11CF11C8E
:100DA000411451046104710429F78114910409F478
:100DB000DECE0E94F700882309F4D9CE0E940000FD
:100DC000D6CE26013701E89477F82FEF3FEF4FE7B3
:100DD0005FE7C301B2010E94650981110DC02FEFC9
:100DE0003FEF4FE75FE7C301B2010E940D081816FD
:100DF0001CF489E291E0AFCF2FEF3FEF4FE75FE4C4
:100E0000C701B6010E94F30818161CF48DE291E0A8
:100E1000A2CF2FEF3FEF4FE75FECC701B6010E9473
:100E20000D0887FDF3CF20E030E0A901C701B6012E
:100E30000E940D0887FF09C06DE282E591E00E94E3
:100E40002D01F7FAF094F7F8F0942AE037ED43EA31
:100E50005BE3C701B6010E94A1072B013C010E9480
:100E600012086B017C010E9441089B01AC01C30187
:100E7000B2010E94A0072B013C014AE0C701B60164
:100E80000E9465036EE282E591E00E942D0120E060
:100E900030E040E251E4C301B2010E94F8082B01A6
:100EA0003C010E9412086B01F12CE12C4AE0C701C1
:100EB000B6010E946503C701B6010E9441089B016B
:100EC000AC01C301B2010E94A00720E030E040E283
:100ED00051E40E94F8080E94120890E080E04AE085
:100EE0000E9465033ACFE2E5F1E01382128288EEB8
:100EF00093E0A0E0B0E084839583A683B78385E088
:100F000091E09183808385EC90E09587848784ECE1
:100F100090E09787868780EC90E0918B808B81ECC6
:100F200090E0938B828B82EC90E0958B848B86ECA7
:100F300090E0978B868B118E128E138E148E0895EF
:100F40005058BB27AA270E94B8070C94B9080E94E2
:100F5000AB0838F00E94B20820F039F49F3F19F432
:100F600026F40C94A8080EF4E095E7FB0C94A20874
:100F7000E92F0E94CA0858F3BA176207730784075B
:100F8000950720F079F4A6F50C94EC080EF4E095A2
:100F90000B2EBA2FA02D0B01B90190010C01CA0133
:100FA000A0011124FF27591B99F0593F50F4503EDE
:100FB00068F11A16F040A22F232F342F4427585FD0
:100FC000F3CF469537952795A795F0405395C9F7E8
:100FD0007EF41F16BA0B620B730B840BBAF09150A0
:100FE000A1F0FF0FBB1F661F771F881FC2F70EC03F
:100FF000BA0F621F731F841F48F487957795679512
:10100000B795F7959E3F08F0B0CF9395880F08F0FD
:101010009927EE0F9795879508950E947E0808F40A
:1010200081E008950E94D20888F09F5798F0B92F68
:101030009927B751B0F0E1F0660F771F881F991F0D
:101040001AF0BA95C9F714C0B13091F00E94EC08BB
:10105000B1E008950C94EC08672F782F8827B85FCB
:1010600039F0B93FCCF3869577956795B395D9F765
:101070003EF490958095709561957F4F8F4F9F4F6F
:101080000895E89409C097FB3EF49095809570957B
:1010900061957F4F8F4F9F4F9923A9F0F92F96E9C4
:1010A000BB279395F695879577956795B795F11139
:1010B000F8CFFAF4BB0F11F460FF1BC06F5F7F4FD6
:1010C0008F4F9F4F16C0882311F096E911C07723E8
:1010D00021F09EE8872F762F05C0662371F096E8F1
:1010E000862F70E060E02AF09A95660F771F881FC0
:1010F000DAF7880F9695879597F90895990F000864
:10110000550FAA0BE0E8FEEF16161706E807F907D9
:10111000C0F012161306E407F50798F0621B730B74
:10112000840B950B39F40A2661F0232B242B252BF5
:1011300021F408950A2609F4A140A6958FEF811D98
:10114000811D089597F99F6780E870E060E0089539
:101150009FEF80EC089500240A94161617061806CF
:101160000906089500240A941216130614060506AB
:101170000895092E0394000C11F4882352F0BB0F3C
:1011800040F4BF2B11F460FF04C06F5F7F4F8F4F9F
:101190009F4F089557FD9058440F551F59F05F3FDA
:1011A00071F04795880F97FB991F61F09F3F79F089
:1011B00087950895121613061406551FF2CF46950B
:1011C000F1DF08C0161617061806991FF1CF86958D
:1011D0007105610508940895E894BB276627772771
:1011E000CB0197F908950E947E0808F48FEF0895C7
:1011F0000E940B090C94B9080E94AB0838F00E94B9
:10120000B20820F0952311F00C94A2080C94A808C1
:1012100011240C94ED080E94CA0870F3959FC1F345
:10122000950F50E0551F629FF001729FBB27F00D94
:10123000B11D639FAA27F00DB11DAA1F649F6627E9
:10124000B00DA11D661F829F2227B00DA11D621F38
:10125000739FB00DA11D621F839FA00D611D221FF2
:10126000749F3327A00D611D231F849F600D211DD6
:10127000822F762F6A2F11249F5750409AF0F1F059
:1012800088234AF0EE0FFF1FBB1F661F771F881FC2
:1012900091505040A9F79E3F510580F00C94A20850
:1012A0000C94ED085F3FE4F3983ED4F38695779570
:1012B0006795B795F795E7959F5FC1F7FE2B880F68
:1012C000911D9695879597F908950E947E08880B41
:1012D000990B0895A1E21A2EAA1BBB1BFD010DC09C
:1012E000AA1FBB1FEE1FFF1FA217B307E407F507D6
:1012F00020F0A21BB30BE40BF50B661F771F881FB2
:10130000991F1A9469F760957095809590959B0147
:10131000AC01BD01CF010895052E97FB1EF400948A
:101320000E94A30957FD07D00E946A0907FC03D059
:101330004EF40C94A30950954095309521953F4F5C
:101340004F4F5F4F089590958095709561957F4FB1
:101350008F4F9F4F0895A29FB001B39FC001A39FDD
:10136000700D811D1124911DB29F700D811D1124DE
:10137000911D0895EE0FFF1F0590F491E02D099443
:10138000F894FFCFFF000000002D018D00BA007A15
:1013900001EB00C900DD0044697374616E6369612B
:1013A00020656D20636D3A20006E616E00696E6687
:0813B000006F7666000D0A00D3
:107E0000112484B714BE81FFF0D085E080938100F7
:107E100082E08093C00088E18093C10086E0809377
:107E2000C20080E18093C4008EE0C9D0259A86E02C
:107E300020E33CEF91E0309385002093840096BBD3
:107E4000B09BFECF1D9AA8958150A9F7CC24DD24C4
:107E500088248394B5E0AB2EA1E19A2EF3E0BF2EE7
:107E6000A2D0813461F49FD0082FAFD0023811F036
:107E7000013811F484E001C083E08DD089C08234E0
:107E800011F484E103C0853419F485E0A6D080C0E4
:107E9000853579F488D0E82EFF2485D0082F10E0AE
:107EA000102F00270E291F29000F111F8ED06801E7
:107EB0006FC0863521F484E090D080E0DECF843638
:107EC00009F040C070D06FD0082F6DD080E0C81688
:107ED00080E7D80618F4F601B7BEE895C0E0D1E017
:107EE00062D089930C17E1F7F0E0CF16F0E7DF06D8
:107EF00018F0F601B7BEE89568D007B600FCFDCFD4
:107F0000A601A0E0B1E02C9130E011968C91119780
:107F100090E0982F8827822B932B1296FA010C0160
:107F200087BEE89511244E5F5F4FF1E0A038BF0790
:107F300051F7F601A7BEE89507B600FCFDCF97BE46
:107F4000E89526C08437B1F42ED02DD0F82E2BD052
:107F50003CD0F601EF2C8F010F5F1F4F84911BD097
:107F6000EA94F801C1F70894C11CD11CFA94CF0C13
:107F7000D11C0EC0853739F428D08EE10CD085E9AC
:107F80000AD08FE07ACF813511F488E018D01DD067
:107F900080E101D065CF982F8091C00085FFFCCF94
:107FA0009093C60008958091C00087FFFCCF809118
:107FB000C00084FD01C0A8958091C6000895E0E648
:107FC000F0E098E1908380830895EDDF803219F02E
:107FD00088E0F5DFFFCF84E1DECF1F93182FE3DFCA
:107FE0001150E9F7F2DF1F91089580E0E8DFEE27F6
:047FF000FF270994CA
:027FFE00040479
:00000001FF
